{"abi":[{"type":"constructor","inputs":[{"name":"owner_","type":"address","internalType":"address"},{"name":"identityRegistry_","type":"address","internalType":"contract IIdentityRegistryMinimal"}],"stateMutability":"nonpayable"},{"type":"function","name":"IDENTITY_REGISTRY","inputs":[],"outputs":[{"name":"","type":"address","internalType":"contract IIdentityRegistryMinimal"}],"stateMutability":"view"},{"type":"function","name":"getQuestValidationRecords","inputs":[{"name":"questId","type":"uint256","internalType":"uint256"}],"outputs":[{"name":"","type":"uint256[]","internalType":"uint256[]"}],"stateMutability":"view"},{"type":"function","name":"getValidationRecord","inputs":[{"name":"recordId","type":"uint256","internalType":"uint256"}],"outputs":[{"name":"","type":"tuple","internalType":"struct ValidationRegistry.ValidationRecord","components":[{"name":"questId","type":"uint256","internalType":"uint256"},{"name":"agentId","type":"uint256","internalType":"uint256"},{"name":"validator","type":"address","internalType":"address"},{"name":"method","type":"uint8","internalType":"enum ValidationRegistry.ValidationMethod"},{"name":"evidenceURI","type":"string","internalType":"string"},{"name":"valid","type":"bool","internalType":"bool"},{"name":"timestamp","type":"uint256","internalType":"uint256"}]}],"stateMutability":"view"},{"type":"function","name":"isValidatorAuthorized","inputs":[{"name":"validator","type":"address","internalType":"address"}],"outputs":[{"name":"","type":"bool","internalType":"bool"}],"stateMutability":"view"},{"type":"function","name":"owner","inputs":[],"outputs":[{"name":"","type":"address","internalType":"address"}],"stateMutability":"view"},{"type":"function","name":"recordValidation","inputs":[{"name":"questId","type":"uint256","internalType":"uint256"},{"name":"agentId","type":"uint256","internalType":"uint256"},{"name":"method","type":"uint8","internalType":"enum ValidationRegistry.ValidationMethod"},{"name":"evidenceURI","type":"string","internalType":"string"},{"name":"valid","type":"bool","internalType":"bool"}],"outputs":[{"name":"recordId","type":"uint256","internalType":"uint256"}],"stateMutability":"nonpayable"},{"type":"function","name":"renounceOwnership","inputs":[],"outputs":[],"stateMutability":"nonpayable"},{"type":"function","name":"setValidatorAuthorization","inputs":[{"name":"validator","type":"address","internalType":"address"},{"name":"authorized","type":"bool","internalType":"bool"}],"outputs":[],"stateMutability":"nonpayable"},{"type":"function","name":"totalRecords","inputs":[],"outputs":[{"name":"","type":"uint256","internalType":"uint256"}],"stateMutability":"view"},{"type":"function","name":"transferOwnership","inputs":[{"name":"newOwner","type":"address","internalType":"address"}],"outputs":[],"stateMutability":"nonpayable"},{"type":"event","name":"OwnershipTransferred","inputs":[{"name":"previousOwner","type":"address","indexed":true,"internalType":"address"},{"name":"newOwner","type":"address","indexed":true,"internalType":"address"}],"anonymous":false},{"type":"event","name":"ValidationRecorded","inputs":[{"name":"recordId","type":"uint256","indexed":true,"internalType":"uint256"},{"name":"questId","type":"uint256","indexed":true,"internalType":"uint256"},{"name":"agentId","type":"uint256","indexed":true,"internalType":"uint256"},{"name":"validator","type":"address","indexed":false,"internalType":"address"},{"name":"method","type":"uint8","indexed":false,"internalType":"enum ValidationRegistry.ValidationMethod"},{"name":"valid","type":"bool","indexed":false,"internalType":"bool"}],"anonymous":false},{"type":"event","name":"ValidatorAuthorizationChanged","inputs":[{"name":"validator","type":"address","indexed":true,"internalType":"address"},{"name":"authorized","type":"bool","indexed":false,"internalType":"bool"}],"anonymous":false},{"type":"error","name":"OwnableInvalidOwner","inputs":[{"name":"owner","type":"address","internalType":"address"}]},{"type":"error","name":"OwnableUnauthorizedAccount","inputs":[{"name":"account","type":"address","internalType":"address"}]},{"type":"error","name":"ValidationRegistry__AgentInactive","inputs":[{"name":"agentId","type":"uint256","internalType":"uint256"}]},{"type":"error","name":"ValidationRegistry__Unauthorized","inputs":[{"name":"validator","type":"address","internalType":"address"}]}],"bytecode":{"object":"0x60a0346100e557601f610bf938819003918201601f19168301916001600160401b038311848410176100e95780849260409485528339810103126100e55780516001600160a01b03811691908290036100e557602001516001600160a01b03811681036100e55781156100d2575f80546001600160a01b031981168417825560405193916001600160a01b03909116907f8be0079c531659141344cd1fd0a4f28419497f9722a3daafe3b4186f6b6457e09080a3608052610afb90816100fe82396080518181816102f401526106bb0152f35b631e4fbdf760e01b5f525f60045260245ffd5b5f80fd5b634e487b7160e01b5f52604160045260245ffdfe6080806040526004361015610012575f80fd5b5f3560e01c908163125f8974146109c45750806326d83a861461091e578063366a0016146106ea57806365fad027146106a657806367905d8014610254578063715018a6146101fd5780638da5cb5b146101d6578063c72c914814610150578063d9ab12aa146101135763f2fde38b1461008a575f80fd5b3461010f57602036600319011261010f576100a36109eb565b6100ab610a9f565b6001600160a01b031680156100fc575f80546001600160a01b03198116831782556001600160a01b0316907f8be0079c531659141344cd1fd0a4f28419497f9722a3daafe3b4186f6b6457e09080a3005b631e4fbdf760e01b5f525f60045260245ffd5b5f80fd5b3461010f57602036600319011261010f576001600160a01b036101346109eb565b165f526003602052602060ff60405f2054166040519015158152f35b3461010f57604036600319011261010f576101696109eb565b602435908115159081830361010f577fed4bb15dbf72365acce7ff6c075f6c0c2bc831c0d07b40c46b15b6afefaadd47916101cd6020926101a8610a9f565b60018060a01b031694855f526003845260405f209060ff801983541691151516179055565b604051908152a2005b3461010f575f36600319011261010f575f546040516001600160a01b039091168152602090f35b3461010f575f36600319011261010f57610215610a9f565b5f80546001600160a01b0319811682556001600160a01b03167f8be0079c531659141344cd1fd0a4f28419497f9722a3daafe3b4186f6b6457e08280a3005b3461010f5760a036600319011261010f57604435600435602435600583101561010f576064359167ffffffffffffffff831161010f573660238401121561010f57826004013567ffffffffffffffff811161010f57366024828601011161010f576084359384151580950361010f57335f52600360205260ff60405f20541615610693576040516382afd23b60e01b8152600481018590526020816024817f00000000000000000000000000000000000000000000000000000000000000006001600160a01b03165afa908115610688575f9161064d575b501561063a576040519161033f83610a01565b8383526020830191858352604084013381525f602060608701946103638c87610a5b565b8060246040519661037d85601f19601f8601160189610a1d565b8288520183870137840101526080850191825260a085019288845260c0860194428652600154600160401b811015610530578060016103bf9201600155610a3f565b97909761062757518755516001870155600286019160018060a01b039051166bffffffffffffffffffffffff60a01b83541617825551600581101561061357815460ff60a01b191660a09190911b60ff60a01b16179055518051600385019167ffffffffffffffff8211610530576104378354610a67565b601f81116105ce575b50602090601f831160011461056357918061048e949260059796945f92610558575b50508160011b915f199060031b1c19161790555b511515600485019060ff801983541691151516179055565b519101556001545f1981019390841161054457815f52600260205260405f208054600160401b811015610530576001810180835581101561051c576020968693846060937fd8e53bd53ae7a0b48ddf2aa1f353b7853686853b9ccd9c6580923e1ce0f85edb955f528a5f20015561050e604051923384528a8401906109de565b6040820152a4604051908152f35b634e487b7160e01b5f52603260045260245ffd5b634e487b7160e01b5f52604160045260245ffd5b634e487b7160e01b5f52601160045260245ffd5b015190508c80610462565b90601f19831691845f52815f20925f5b8181106105b65750926001928592600599989661048e98961061059e575b505050811b019055610476565b01515f1960f88460031b161c191690558c8080610591565b92936020600181928786015181550195019301610573565b835f5260205f20601f840160051c81019160208510610609575b601f0160051c01905b8181106105fe5750610440565b5f81556001016105f1565b90915081906105e8565b634e487b7160e01b5f52602160045260245ffd5b634e487b7160e01b5f525f60045260245ffd5b8363e09f61c560e01b5f5260045260245ffd5b90506020813d602011610680575b8161066860209383610a1d565b8101031261010f5751801515810361010f578761032c565b3d915061065b565b6040513d5f823e3d90fd5b6368b53cf760e11b5f523360045260245ffd5b3461010f575f36600319011261010f576040517f00000000000000000000000000000000000000000000000000000000000000006001600160a01b03168152602090f35b3461010f57602036600319011261010f576004355f60c060405161070d81610a01565b828152826020820152826040820152826060820152606060808201528260a082015201526001548110156108cd5761074490610a3f565b5060405161075181610a01565b8154815260018201546020820190815260028301546001600160a01b03811660408401908152919390606084019061078f9060a01c60ff1682610a5b565b6003820190604051915f908054906107a682610a67565b80865291600181169081156108a75750600114610867575b886101208960208a8a8a61082b8b6107d8838d0384610a1d565b60808701928352600560ff6004860154169460a08901951515865201549460c08801958652604051998a98888a5251888a015251604089015260018060a01b0390511660608801525160808701906109de565b5160e060a0860152805193849182610100880152018686015e5f84840186015251151560c08401525160e0830152601f01601f19168101030190f35b5f908152602081209092505b81831061088d575050820160209081019061082b906107be565b600181602092949394548385890101520191019190610873565b60ff191660208088019190915292151560051b86018301935061082b9291506107be9050565b60405162461bcd60e51b8152602060048201526024808201527f56616c69646174696f6e52656769737472793a20696e76616c6964207265636f6044820152631c99125960e21b6064820152608490fd5b3461010f57602036600319011261010f576004355f52600260205260405f20604051806020835491828152019081935f5260205f20905f5b8181106109ae575050508161096c910382610a1d565b604051918291602083019060208452518091526040830191905f5b818110610995575050500390f35b8251845285945060209384019390920191600101610987565b8254845260209093019260019283019201610956565b3461010f575f36600319011261010f576020906001548152f35b9060058210156106135752565b600435906001600160a01b038216820361010f57565b60e0810190811067ffffffffffffffff82111761053057604052565b90601f8019910116810190811067ffffffffffffffff82111761053057604052565b60015481101561051c5760015f52600660205f20910201905f90565b60058210156106135752565b90600182811c92168015610a95575b6020831014610a8157565b634e487b7160e01b5f52602260045260245ffd5b91607f1691610a76565b5f546001600160a01b03163303610ab257565b63118cdaa760e01b5f523360045260245ffdfea2646970667358221220fd385cef4eb6830047664111cb3e862add7f818830bac2e61e2d17a36041324864736f6c634300081e0033","linkReferences":{}},"methodIdentifiers":{"IDENTITY_REGISTRY()":"65fad027","getQuestValidationRecords(uint256)":"26d83a86","getValidationRecord(uint256)":"366a0016","isValidatorAuthorized(address)":"d9ab12aa","owner()":"8da5cb5b","recordValidation(uint256,uint256,uint8,string,bool)":"67905d80","renounceOwnership()":"715018a6","setValidatorAuthorization(address,bool)":"c72c9148","totalRecords()":"125f8974","transferOwnership(address)":"f2fde38b"},"id":58}