{"abi":[{"type":"constructor","inputs":[{"name":"owner_","type":"address","internalType":"address"},{"name":"identityRegistry_","type":"address","internalType":"contract IIdentityRegistry"}],"stateMutability":"nonpayable"},{"type":"function","name":"IDENTITY_REGISTRY","inputs":[],"outputs":[{"name":"","type":"address","internalType":"contract IIdentityRegistry"}],"stateMutability":"view"},{"type":"function","name":"getAggregate","inputs":[{"name":"agentId","type":"uint256","internalType":"uint256"}],"outputs":[{"name":"","type":"tuple","internalType":"struct ReputationRegistry.Aggregate","components":[{"name":"count","type":"uint256","internalType":"uint256"},{"name":"totalScore","type":"uint256","internalType":"uint256"}]}],"stateMutability":"view"},{"type":"function","name":"getAverageScore","inputs":[{"name":"agentId","type":"uint256","internalType":"uint256"}],"outputs":[{"name":"","type":"uint256","internalType":"uint256"}],"stateMutability":"view"},{"type":"function","name":"getReviews","inputs":[{"name":"agentId","type":"uint256","internalType":"uint256"}],"outputs":[{"name":"","type":"tuple[]","internalType":"struct ReputationRegistry.Review[]","components":[{"name":"questId","type":"uint256","internalType":"uint256"},{"name":"score","type":"uint8","internalType":"uint8"},{"name":"metadataURI","type":"string","internalType":"string"},{"name":"paymentReference","type":"string","internalType":"string"},{"name":"timestamp","type":"uint256","internalType":"uint256"},{"name":"reviewer","type":"address","internalType":"address"}]}],"stateMutability":"view"},{"type":"function","name":"isReviewerAuthorized","inputs":[{"name":"reviewer","type":"address","internalType":"address"}],"outputs":[{"name":"","type":"bool","internalType":"bool"}],"stateMutability":"view"},{"type":"function","name":"owner","inputs":[],"outputs":[{"name":"","type":"address","internalType":"address"}],"stateMutability":"view"},{"type":"function","name":"renounceOwnership","inputs":[],"outputs":[],"stateMutability":"nonpayable"},{"type":"function","name":"setReviewerAuthorization","inputs":[{"name":"reviewer","type":"address","internalType":"address"},{"name":"authorized","type":"bool","internalType":"bool"}],"outputs":[],"stateMutability":"nonpayable"},{"type":"function","name":"submitReview","inputs":[{"name":"agentId","type":"uint256","internalType":"uint256"},{"name":"questId","type":"uint256","internalType":"uint256"},{"name":"score","type":"uint8","internalType":"uint8"},{"name":"metadataURI","type":"string","internalType":"string"},{"name":"paymentReference","type":"string","internalType":"string"}],"outputs":[],"stateMutability":"nonpayable"},{"type":"function","name":"transferOwnership","inputs":[{"name":"newOwner","type":"address","internalType":"address"}],"outputs":[],"stateMutability":"nonpayable"},{"type":"event","name":"OwnershipTransferred","inputs":[{"name":"previousOwner","type":"address","indexed":true,"internalType":"address"},{"name":"newOwner","type":"address","indexed":true,"internalType":"address"}],"anonymous":false},{"type":"event","name":"ReviewSubmitted","inputs":[{"name":"agentId","type":"uint256","indexed":true,"internalType":"uint256"},{"name":"questId","type":"uint256","indexed":true,"internalType":"uint256"},{"name":"reviewer","type":"address","indexed":true,"internalType":"address"},{"name":"score","type":"uint8","indexed":false,"internalType":"uint8"},{"name":"metadataURI","type":"string","indexed":false,"internalType":"string"}],"anonymous":false},{"type":"event","name":"ReviewerAuthorizationChanged","inputs":[{"name":"reviewer","type":"address","indexed":true,"internalType":"address"},{"name":"authorized","type":"bool","indexed":false,"internalType":"bool"}],"anonymous":false},{"type":"error","name":"OwnableInvalidOwner","inputs":[{"name":"owner","type":"address","internalType":"address"}]},{"type":"error","name":"OwnableUnauthorizedAccount","inputs":[{"name":"account","type":"address","internalType":"address"}]},{"type":"error","name":"ReputationRegistry__AgentInactive","inputs":[{"name":"agentId","type":"uint256","internalType":"uint256"}]},{"type":"error","name":"ReputationRegistry__InvalidScore","inputs":[{"name":"score","type":"uint8","internalType":"uint8"}]},{"type":"error","name":"ReputationRegistry__UnauthorizedReviewer","inputs":[{"name":"reviewer","type":"address","internalType":"address"}]}],"bytecode":{"object":"0x60a0346100e557601f610d0c38819003918201601f19168301916001600160401b038311848410176100e95780849260409485528339810103126100e55780516001600160a01b03811691908290036100e557602001516001600160a01b03811681036100e55781156100d2575f80546001600160a01b031981168417825560405193916001600160a01b03909116907f8be0079c531659141344cd1fd0a4f28419497f9722a3daafe3b4186f6b6457e09080a3608052610c0e90816100fe82396080518181816103be01526104850152f35b631e4fbdf760e01b5f525f60045260245ffd5b5f80fd5b634e487b7160e01b5f52604160045260245ffdfe6080806040526004361015610012575f80fd5b5f3560e01c908163280b4f42146109615750806342faaaaf146108e457806356e920f3146103ed57806365fad027146103a9578063715018a614610352578063799602f1146102f55780638da5cb5b146102ce5780639d4a225514610139578063de3a2b59146101135763f2fde38b1461008a575f80fd5b3461010f57602036600319011261010f576100a361099a565b6100ab610bb2565b6001600160a01b031680156100fc575f80546001600160a01b03198116831782556001600160a01b0316907f8be0079c531659141344cd1fd0a4f28419497f9722a3daafe3b4186f6b6457e09080a3005b631e4fbdf760e01b5f525f60045260245ffd5b5f80fd5b3461010f57602036600319011261010f576020610131600435610b7a565b604051908152f35b3461010f57602036600319011261010f576004355f52600160205260405f2080549067ffffffffffffffff82116102ba576040519161017e60208260051b0184610a3a565b8083526020830180925f5260205f205f915b83831061024d57848660405191829160208301906020845251809152604083019060408160051b85010192915f905b8282106101ce57505050500390f35b919360019193955060208091603f198982030185528751908151815260ff83830151168382015260a0610225610213604085015160c0604086015260c08501906109de565b606085015184820360608601526109de565b9260808101516080840152818780821b039101511691015296019201920185949391926101bf565b6006602060019260405161026081610a02565b8554815260ff85870154168382015261027b60028701610ada565b604082015261028c60038701610ada565b606082015260048601546080820152848060a01b0360058701541660a0820152815201920192019190610190565b634e487b7160e01b5f52604160045260245ffd5b3461010f575f36600319011261010f575f546040516001600160a01b039091168152602090f35b3461010f57602036600319011261010f575f602060405161031581610a1e565b82815201526004355f5260026020526040805f20815161033481610a1e565b60206001835493848452015491019081528251918252516020820152f35b3461010f575f36600319011261010f5761036a610bb2565b5f80546001600160a01b0319811682556001600160a01b03167f8be0079c531659141344cd1fd0a4f28419497f9722a3daafe3b4186f6b6457e08280a3005b3461010f575f36600319011261010f576040517f00000000000000000000000000000000000000000000000000000000000000006001600160a01b03168152602090f35b3461010f5760a036600319011261010f576004356024356044359160ff831680930361010f5760643567ffffffffffffffff811161010f576104339036906004016109b0565b9360843567ffffffffffffffff811161010f576104549036906004016109b0565b335f52600360205260ff60405f205416156108d1576040516382afd23b60e01b8152600481018690526020816024817f00000000000000000000000000000000000000000000000000000000000000006001600160a01b03165afa9081156108c6575f9161088b575b5015610878576064831161086557604051906104d882610a02565b86825261050060208301938585526104f1368b89610a5c565b92604085019384523691610a5c565b60608301908152608083019142835260a0840194338652885f52600160205260405f20805490680100000000000000008210156102ba5760018201808255821015610851575f52600660205f209102019451855560ff6001860191511660ff1982541617905560028401905180519067ffffffffffffffff82116102ba57819061058a8454610aa2565b601f8111610801575b50602090601f831160011461079e575f92610793575b50508160011b915f199060031b1c19161790555b518051600384019167ffffffffffffffff82116102ba576105de8354610aa2565b601f811161074e575b50602090601f83116001146106e657600595949392915f91836106db575b50508160011b915f199060031b1c19161790555b516004820155019060018060a01b039051166bffffffffffffffffffffffff60a01b825416179055825f52600260205260405f20805490600182018092116106c7576001918155018054928284018094116106c7577f91622f0707905f4e52181f5494c2127051c868a3d39e553179149c8569902081938792556040519283526040602084015281604084015260608301375f606086830101526060813396601f80199101168101030190a4005b634e487b7160e01b5f52601160045260245ffd5b015190508c80610605565b90601f19831691845f52815f20925f5b8181106107365750916001939185600599989796941061071e575b505050811b019055610619565b01515f1960f88460031b161c191690558c8080610711565b929360206001819287860151815501950193016106f6565b835f5260205f20601f840160051c81019160208510610789575b601f0160051c01905b81811061077e57506105e7565b5f8155600101610771565b9091508190610768565b015190508c806105a9565b5f8581528281209350601f198516905b8181106107e957509084600195949392106107d1575b505050811b0190556105bd565b01515f1960f88460031b161c191690558c80806107c4565b929360206001819287860151815501950193016107ae565b909150835f5260205f20601f840160051c81019160208510610847575b90601f859493920160051c01905b8181106108395750610593565b5f815584935060010161082c565b909150819061081e565b634e487b7160e01b5f52603260045260245ffd5b82633fd9cc8760e11b5f5260045260245ffd5b84631eca06ad60e21b5f5260045260245ffd5b90506020813d6020116108be575b816108a660209383610a3a565b8101031261010f5751801515810361010f57886104bd565b3d9150610899565b6040513d5f823e3d90fd5b6322c630af60e21b5f523360045260245ffd5b3461010f57604036600319011261010f576108fd61099a565b6024359081151580920361010f5760207f30b6cdfe01982d0e978752f156ecb4134f5bc37a7bdce67ff994d4076ec34a5d91610937610bb2565b60018060a01b031692835f526003825260405f2060ff1981541660ff8316179055604051908152a2005b3461010f57602036600319011261010f576020906001600160a01b0361098561099a565b165f526003825260ff60405f20541615158152f35b600435906001600160a01b038216820361010f57565b9181601f8401121561010f5782359167ffffffffffffffff831161010f576020838186019501011161010f57565b805180835260209291819084018484015e5f828201840152601f01601f1916010190565b60c0810190811067ffffffffffffffff8211176102ba57604052565b6040810190811067ffffffffffffffff8211176102ba57604052565b90601f8019910116810190811067ffffffffffffffff8211176102ba57604052565b92919267ffffffffffffffff82116102ba5760405191610a86601f8201601f191660200184610a3a565b82948184528183011161010f578281602093845f960137010152565b90600182811c92168015610ad0575b6020831014610abc57565b634e487b7160e01b5f52602260045260245ffd5b91607f1691610ab1565b9060405191825f825492610aed84610aa2565b8084529360018116908115610b585750600114610b14575b50610b1292500383610a3a565b565b90505f9291925260205f20905f915b818310610b3c575050906020610b12928201015f610b05565b6020919350806001915483858901015201910190918492610b23565b905060209250610b1294915060ff191682840152151560051b8201015f610b05565b5f52600260205260405f206020604051610b9381610a1e565b6001835493848352015491829101528115610bac570490565b50505f90565b5f546001600160a01b03163303610bc557565b63118cdaa760e01b5f523360045260245ffdfea2646970667358221220e744bdd7d6b045197cb9a5a0db0a743d8726d91b639c6a12ddb923ad4ce2426e64736f6c634300081e0033","linkReferences":{}},"methodIdentifiers":{"IDENTITY_REGISTRY()":"65fad027","getAggregate(uint256)":"799602f1","getAverageScore(uint256)":"de3a2b59","getReviews(uint256)":"9d4a2255","isReviewerAuthorized(address)":"280b4f42","owner()":"8da5cb5b","renounceOwnership()":"715018a6","setReviewerAuthorization(address,bool)":"42faaaaf","submitReview(uint256,uint256,uint8,string,string)":"56e920f3","transferOwnership(address)":"f2fde38b"},"id":57}