{"abi":[{"type":"constructor","inputs":[{"name":"owner_","type":"address","internalType":"address"}],"stateMutability":"nonpayable"},{"type":"function","name":"agentIdByController","inputs":[{"name":"controller","type":"address","internalType":"address"}],"outputs":[{"name":"","type":"uint256","internalType":"uint256"}],"stateMutability":"view"},{"type":"function","name":"approve","inputs":[{"name":"to","type":"address","internalType":"address"},{"name":"tokenId","type":"uint256","internalType":"uint256"}],"outputs":[],"stateMutability":"nonpayable"},{"type":"function","name":"balanceOf","inputs":[{"name":"owner","type":"address","internalType":"address"}],"outputs":[{"name":"","type":"uint256","internalType":"uint256"}],"stateMutability":"view"},{"type":"function","name":"getAgent","inputs":[{"name":"agentId","type":"uint256","internalType":"uint256"}],"outputs":[{"name":"","type":"tuple","internalType":"struct IdentityRegistry.AgentIdentity","components":[{"name":"controller","type":"address","internalType":"address"},{"name":"metadataURI","type":"string","internalType":"string"},{"name":"active","type":"bool","internalType":"bool"}]}],"stateMutability":"view"},{"type":"function","name":"getApproved","inputs":[{"name":"tokenId","type":"uint256","internalType":"uint256"}],"outputs":[{"name":"","type":"address","internalType":"address"}],"stateMutability":"view"},{"type":"function","name":"isActive","inputs":[{"name":"agentId","type":"uint256","internalType":"uint256"}],"outputs":[{"name":"","type":"bool","internalType":"bool"}],"stateMutability":"view"},{"type":"function","name":"isApprovedForAll","inputs":[{"name":"owner","type":"address","internalType":"address"},{"name":"operator","type":"address","internalType":"address"}],"outputs":[{"name":"","type":"bool","internalType":"bool"}],"stateMutability":"view"},{"type":"function","name":"name","inputs":[],"outputs":[{"name":"","type":"string","internalType":"string"}],"stateMutability":"view"},{"type":"function","name":"owner","inputs":[],"outputs":[{"name":"","type":"address","internalType":"address"}],"stateMutability":"view"},{"type":"function","name":"ownerOf","inputs":[{"name":"tokenId","type":"uint256","internalType":"uint256"}],"outputs":[{"name":"","type":"address","internalType":"address"}],"stateMutability":"view"},{"type":"function","name":"registerAgent","inputs":[{"name":"controller","type":"address","internalType":"address"},{"name":"metadataURI","type":"string","internalType":"string"}],"outputs":[{"name":"agentId","type":"uint256","internalType":"uint256"}],"stateMutability":"nonpayable"},{"type":"function","name":"renounceOwnership","inputs":[],"outputs":[],"stateMutability":"nonpayable"},{"type":"function","name":"safeTransferFrom","inputs":[{"name":"from","type":"address","internalType":"address"},{"name":"to","type":"address","internalType":"address"},{"name":"tokenId","type":"uint256","internalType":"uint256"}],"outputs":[],"stateMutability":"nonpayable"},{"type":"function","name":"safeTransferFrom","inputs":[{"name":"from","type":"address","internalType":"address"},{"name":"to","type":"address","internalType":"address"},{"name":"tokenId","type":"uint256","internalType":"uint256"},{"name":"data","type":"bytes","internalType":"bytes"}],"outputs":[],"stateMutability":"nonpayable"},{"type":"function","name":"setAgentStatus","inputs":[{"name":"agentId","type":"uint256","internalType":"uint256"},{"name":"active","type":"bool","internalType":"bool"}],"outputs":[],"stateMutability":"nonpayable"},{"type":"function","name":"setApprovalForAll","inputs":[{"name":"operator","type":"address","internalType":"address"},{"name":"approved","type":"bool","internalType":"bool"}],"outputs":[],"stateMutability":"nonpayable"},{"type":"function","name":"setController","inputs":[{"name":"agentId","type":"uint256","internalType":"uint256"},{"name":"newController","type":"address","internalType":"address"}],"outputs":[],"stateMutability":"nonpayable"},{"type":"function","name":"supportsInterface","inputs":[{"name":"interfaceId","type":"bytes4","internalType":"bytes4"}],"outputs":[{"name":"","type":"bool","internalType":"bool"}],"stateMutability":"view"},{"type":"function","name":"symbol","inputs":[],"outputs":[{"name":"","type":"string","internalType":"string"}],"stateMutability":"view"},{"type":"function","name":"tokenURI","inputs":[{"name":"agentId","type":"uint256","internalType":"uint256"}],"outputs":[{"name":"","type":"string","internalType":"string"}],"stateMutability":"view"},{"type":"function","name":"transferFrom","inputs":[{"name":"from","type":"address","internalType":"address"},{"name":"to","type":"address","internalType":"address"},{"name":"tokenId","type":"uint256","internalType":"uint256"}],"outputs":[],"stateMutability":"nonpayable"},{"type":"function","name":"transferOwnership","inputs":[{"name":"newOwner","type":"address","internalType":"address"}],"outputs":[],"stateMutability":"nonpayable"},{"type":"function","name":"updateMetadata","inputs":[{"name":"agentId","type":"uint256","internalType":"uint256"},{"name":"metadataURI","type":"string","internalType":"string"}],"outputs":[],"stateMutability":"nonpayable"},{"type":"event","name":"AgentControllerUpdated","inputs":[{"name":"agentId","type":"uint256","indexed":true,"internalType":"uint256"},{"name":"newController","type":"address","indexed":true,"internalType":"address"}],"anonymous":false},{"type":"event","name":"AgentMetadataUpdated","inputs":[{"name":"agentId","type":"uint256","indexed":true,"internalType":"uint256"},{"name":"metadataURI","type":"string","indexed":false,"internalType":"string"}],"anonymous":false},{"type":"event","name":"AgentRegistered","inputs":[{"name":"agentId","type":"uint256","indexed":true,"internalType":"uint256"},{"name":"controller","type":"address","indexed":true,"internalType":"address"},{"name":"metadataURI","type":"string","indexed":false,"internalType":"string"}],"anonymous":false},{"type":"event","name":"AgentStatusChanged","inputs":[{"name":"agentId","type":"uint256","indexed":true,"internalType":"uint256"},{"name":"active","type":"bool","indexed":false,"internalType":"bool"}],"anonymous":false},{"type":"event","name":"Approval","inputs":[{"name":"owner","type":"address","indexed":true,"internalType":"address"},{"name":"approved","type":"address","indexed":true,"internalType":"address"},{"name":"tokenId","type":"uint256","indexed":true,"internalType":"uint256"}],"anonymous":false},{"type":"event","name":"ApprovalForAll","inputs":[{"name":"owner","type":"address","indexed":true,"internalType":"address"},{"name":"operator","type":"address","indexed":true,"internalType":"address"},{"name":"approved","type":"bool","indexed":false,"internalType":"bool"}],"anonymous":false},{"type":"event","name":"OwnershipTransferred","inputs":[{"name":"previousOwner","type":"address","indexed":true,"internalType":"address"},{"name":"newOwner","type":"address","indexed":true,"internalType":"address"}],"anonymous":false},{"type":"event","name":"Transfer","inputs":[{"name":"from","type":"address","indexed":true,"internalType":"address"},{"name":"to","type":"address","indexed":true,"internalType":"address"},{"name":"tokenId","type":"uint256","indexed":true,"internalType":"uint256"}],"anonymous":false},{"type":"error","name":"ERC721IncorrectOwner","inputs":[{"name":"sender","type":"address","internalType":"address"},{"name":"tokenId","type":"uint256","internalType":"uint256"},{"name":"owner","type":"address","internalType":"address"}]},{"type":"error","name":"ERC721InsufficientApproval","inputs":[{"name":"operator","type":"address","internalType":"address"},{"name":"tokenId","type":"uint256","internalType":"uint256"}]},{"type":"error","name":"ERC721InvalidApprover","inputs":[{"name":"approver","type":"address","internalType":"address"}]},{"type":"error","name":"ERC721InvalidOperator","inputs":[{"name":"operator","type":"address","internalType":"address"}]},{"type":"error","name":"ERC721InvalidOwner","inputs":[{"name":"owner","type":"address","internalType":"address"}]},{"type":"error","name":"ERC721InvalidReceiver","inputs":[{"name":"receiver","type":"address","internalType":"address"}]},{"type":"error","name":"ERC721InvalidSender","inputs":[{"name":"sender","type":"address","internalType":"address"}]},{"type":"error","name":"ERC721NonexistentToken","inputs":[{"name":"tokenId","type":"uint256","internalType":"uint256"}]},{"type":"error","name":"IdentityRegistry__ControllerExists","inputs":[{"name":"controller","type":"address","internalType":"address"}]},{"type":"error","name":"IdentityRegistry__NotAgentController","inputs":[{"name":"agentId","type":"uint256","internalType":"uint256"},{"name":"caller","type":"address","internalType":"address"}]},{"type":"error","name":"IdentityRegistry__UnknownAgent","inputs":[{"name":"agentId","type":"uint256","internalType":"uint256"}]},{"type":"error","name":"OwnableInvalidOwner","inputs":[{"name":"owner","type":"address","internalType":"address"}]},{"type":"error","name":"OwnableUnauthorizedAccount","inputs":[{"name":"account","type":"address","internalType":"address"}]}],"bytecode":{"object":"0x608060405234610385576119aa6020813803918261001c81610389565b93849283398101031261038557516001600160a01b03811690819003610385576100466040610389565b90600a82526913515114481059d95b9d60b21b60208301526100686040610389565b60038152624d514160e81b602082015282519091906001600160401b038111610299575f54600181811c9116801561037b575b602082101461027b57601f8111610319575b506020601f82116001146102b857819293945f926102ad575b50508160011b915f199060031b1c1916175f555b81516001600160401b03811161029957600154600181811c9116801561028f575b602082101461027b57601f8111610218575b50602092601f82116001146101b757928192935f926101ac575b50508160011b915f199060031b1c1916176001555b801561019957600680546001600160a01b03198116831790915560405191906001600160a01b03167f8be0079c531659141344cd1fd0a4f28419497f9722a3daafe3b4186f6b6457e05f80a360016007556115fb90816103af8239f35b631e4fbdf760e01b5f525f60045260245ffd5b015190505f80610127565b601f1982169360015f52805f20915f5b86811061020057508360019596106101e8575b505050811b0160015561013c565b01515f1960f88460031b161c191690555f80806101da565b919260206001819286850151815501940192016101c7565b60015f527fb10e2d527612073b26eecdfd717e6a320cf44b4afac2b0732d9fcbe2b7fa0cf6601f830160051c81019160208410610271575b601f0160051c01905b818110610266575061010d565b5f8155600101610259565b9091508190610250565b634e487b7160e01b5f52602260045260245ffd5b90607f16906100fb565b634e487b7160e01b5f52604160045260245ffd5b015190505f806100c6565b601f198216905f8052805f20915f5b818110610301575095836001959697106102e9575b505050811b015f556100da565b01515f1960f88460031b161c191690555f80806102dc565b9192602060018192868b0151815501940192016102c7565b5f80527f290decd9548b62a8d60345a988386fc84ba6bc95484008f6362f93160ef3e563601f830160051c81019160208410610371575b601f0160051c01905b81811061036657506100ad565b5f8155600101610359565b9091508190610350565b90607f169061009b565b5f80fd5b6040519190601f01601f191682016001600160401b038111838210176102995760405256fe6080806040526004361015610012575f80fd5b5f3560e01c90816301ffc9a714610eb95750806306fdde0314610e17578063081812fc14610ddb578063095ea7b314610cf15780631bc51e7d14610c7e57806322b833d814610a0d57806323b872dd146109f65780632de5aaf71461091c5780633e5779ee146107ad57806342842e0e1461078457806353c8388e146105955780636352211e1461056557806370a0823114610514578063715018a6146104b957806382afd23b146104915780638da5cb5b1461046957806395d89b411461039f5780639c996edb14610367578063a22cb465146102c6578063b88d4fde1461023c578063c87b56dd146101fa578063e985e9c5146101a35763f2fde38b14610119575f80fd5b3461019f57602036600319011261019f57610132610f48565b61013a6114b6565b6001600160a01b0316801561018c57600680546001600160a01b0319811683179091556001600160a01b03167f8be0079c531659141344cd1fd0a4f28419497f9722a3daafe3b4186f6b6457e05f80a3005b631e4fbdf760e01b5f525f60045260245ffd5b5f80fd5b3461019f57604036600319011261019f576101bc610f48565b6101c4610f5e565b9060018060a01b03165f52600560205260405f209060018060a01b03165f52602052602060ff60405f2054166040519015158152f35b3461019f57602036600319011261019f57610238610224600161021e6004356114dd565b0161107d565b604051918291602083526020830190610f24565b0390f35b3461019f57608036600319011261019f57610255610f48565b61025d610f5e565b6064359167ffffffffffffffff831161019f573660238401121561019f5782600401359161028a83611029565b926102986040519485611007565b808452366024828701011161019f576020815f9260246102c49801838801378501015260443591611342565b005b3461019f57604036600319011261019f576102df610f48565b6102e7610f74565b6001600160a01b0390911690811561035457335f52600560205260405f20825f526020526103248160405f209060ff801983541691151516179055565b60405190151581527f17307eab39ab6107e8899845ad3d59bd9653f200f220920489ca2b5937696c3160203392a3005b50630b61174360e31b5f5260045260245ffd5b3461019f57602036600319011261019f576001600160a01b03610388610f48565b165f526009602052602060405f2054604051908152f35b3461019f575f36600319011261019f576040515f6001546103bf81611045565b808452906001811690811561044557506001146103e7575b6102388361022481850382611007565b60015f9081527fb10e2d527612073b26eecdfd717e6a320cf44b4afac2b0732d9fcbe2b7fa0cf6939250905b80821061042b575090915081016020016102246103d7565b919260018160209254838588010152019101909291610413565b60ff191660208086019190915291151560051b8401909101915061022490506103d7565b3461019f575f36600319011261019f576006546040516001600160a01b039091168152602090f35b3461019f57602036600319011261019f5760206104af6004356112e4565b6040519015158152f35b3461019f575f36600319011261019f576104d16114b6565b600680546001600160a01b031981169091555f906001600160a01b03167f8be0079c531659141344cd1fd0a4f28419497f9722a3daafe3b4186f6b6457e08280a3005b3461019f57602036600319011261019f576001600160a01b03610535610f48565b168015610552575f526003602052602060405f2054604051908152f35b6322718ad960e21b5f525f60045260245ffd5b3461019f57602036600319011261019f576020610583600435611482565b6040516001600160a01b039091168152f35b3461019f57604036600319011261019f5760043560243567ffffffffffffffff811161019f576105c9903690600401610f83565b6105d48392936114dd565b80546001600160a01b03163314158061076f575b610758576001019267ffffffffffffffff8211610744576106098454611045565b601f81116106ff575b505f93601f831160011461067d57827f859fac2fc059a2fa38efe7236e1c16278c1519298d62dd05582ff7fa392a104594955f91610672575b508360011b905f198560031b1c19161790555b61066d6040519283928361111d565b0390a2005b90508201358661064b565b601f19831694815f5260205f20905f5b8781106106e75750847f859fac2fc059a2fa38efe7236e1c16278c1519298d62dd05582ff7fa392a10459697106106ce575b5050600183811b01905561065e565b8301355f19600386901b60f8161c1916905585806106bf565b9091602060018192858801358155019301910161068d565b845f5260205f20601f840160051c8101916020851061073a575b601f0160051c01905b81811061072f5750610612565b5f8155600101610722565b9091508190610719565b634e487b7160e01b5f52604160045260245ffd5b8263bb868cbf60e01b5f526004523360245260445ffd5b506006546001600160a01b03163314156105e8565b3461019f576102c461079536610fb1565b90604051926107a5602085611007565b5f8452611342565b3461019f57604036600319011261019f576004356107c9610f5e565b906107d26114b6565b6001600160a01b0382169182156108cd576107ec826114dd565b80546001600160a01b03169190826108ba575b845f52600960205260405f20546108a75780546001600160a01b031916851790555f8481526009602052604090208390556001600160a01b0390610844908490611501565b16908161085e5782637e27328960e01b5f5260045260245ffd5b80820361088d5750507f36eda9b7b926e67107393abad79071481ba1bfc030e5dc2fb67e0d20a274bb3a5f80a3005b82906364283d7b60e01b5f5260045260245260445260645ffd5b8463385f02bd60e21b5f5260045260245ffd5b825f5260096020525f60408120556107ff565b60405162461bcd60e51b815260206004820152602160248201527f4964656e7469747952656769737472793a20636f6e74726f6c6c6572207a65726044820152606f60f81b6064820152608490fd5b3461019f57602036600319011261019f576004355f6040805161093e81610feb565b828152606060208201520152805f52600860205260405f20906040519061096482610feb565b82546001600160a01b0316825260ff60026109816001860161107d565b602085019081529401541615156040830190815282519091906001600160a01b0316156109e457506109d76040519384936020855260018060a01b03905116602085015251606060408501526080840190610f24565b9051151560608301520390f35b637741618960e11b5f5260045260245ffd5b3461019f576102c4610a0736610fb1565b91611144565b3461019f57604036600319011261019f57610a26610f48565b60243567ffffffffffffffff811161019f57610a46903690600401610f83565b9190610a506114b6565b6001600160a01b0382169081156108cd57815f52600960205260405f2054610c6b576007549260018401808511610c57576007556001600160a01b0390610a98908590611501565b16610c44575f83815260086020526040902080546001600160a01b0319168317815560018101919067ffffffffffffffff861161074457610ad98354611045565b601f8111610bff575b509484916020965f94601f8411600114610b765790600291847f0d063c6022bff16d09991a9f91882ffa112f5fb2529136f65eb4c77bbd047e4396975f91610b6b575b508560011b905f198760031b1c19161790555b01600160ff19825416179055845f52600987528360405f2055610b606040519283928361111d565b0390a3604051908152f35b90508401358b610b25565b601f19841695815f52895f20965f5b818110610be55750966002939291867f0d063c6022bff16d09991a9f91882ffa112f5fb2529136f65eb4c77bbd047e43989910610bcc575b5050600185811b019055610b38565b8501355f19600388901b60f8161c191690558a80610bbd565b8286013589556001909801978a9750918b01918b01610b85565b835f5260205f20601f880160051c81019160208910610c3a575b601f0160051c01905b818110610c2f5750610ae2565b5f8155600101610c22565b9091508190610c19565b6339e3563760e11b5f525f60045260245ffd5b634e487b7160e01b5f52601160045260245ffd5b5063385f02bd60e21b5f5260045260245ffd5b3461019f57604036600319011261019f576004357f5b7fa91ee392647b777096db0d386dc7cb7a3bfbc86ae6a10e0500de3a5ad02f6020610cbd610f74565b610cc56114b6565b610ce6816002610cd4876114dd565b019060ff801983541691151516179055565b6040519015158152a2005b3461019f57604036600319011261019f57610d0a610f48565b602435610d1681611482565b33151580610dc8575b80610d9b575b610d885781906001600160a01b0384811691167f8c5be1e5ebec7d5bd14f71427d1e84f3dd0314c0f7b2291e5b200ac8c7c3b9255f80a45f90815260046020526040902080546001600160a01b0319166001600160a01b03909216919091179055005b63a9fbf51f60e01b5f523360045260245ffd5b506001600160a01b0381165f90815260056020908152604080832033845290915290205460ff1615610d25565b506001600160a01b038116331415610d1f565b3461019f57602036600319011261019f57600435610df881611482565b505f526004602052602060018060a01b0360405f205416604051908152f35b3461019f575f36600319011261019f576040515f5f54610e3681611045565b80845290600181169081156104455750600114610e5d576102388361022481850382611007565b5f8080527f290decd9548b62a8d60345a988386fc84ba6bc95484008f6362f93160ef3e563939250905b808210610e9f575090915081016020016102246103d7565b919260018160209254838588010152019101909291610e87565b3461019f57602036600319011261019f576004359063ffffffff60e01b821680920361019f576020916380ac58cd60e01b8114908115610f13575b8115610f02575b5015158152f35b6301ffc9a760e01b14905083610efb565b635b5e139f60e01b81149150610ef4565b805180835260209291819084018484015e5f828201840152601f01601f1916010190565b600435906001600160a01b038216820361019f57565b602435906001600160a01b038216820361019f57565b60243590811515820361019f57565b9181601f8401121561019f5782359167ffffffffffffffff831161019f576020838186019501011161019f57565b606090600319011261019f576004356001600160a01b038116810361019f57906024356001600160a01b038116810361019f579060443590565b6060810190811067ffffffffffffffff82111761074457604052565b90601f8019910116810190811067ffffffffffffffff82111761074457604052565b67ffffffffffffffff811161074457601f01601f191660200190565b90600182811c92168015611073575b602083101461105f57565b634e487b7160e01b5f52602260045260245ffd5b91607f1691611054565b9060405191825f82549261109084611045565b80845293600181169081156110fb57506001146110b7575b506110b592500383611007565b565b90505f9291925260205f20905f915b8183106110df5750509060206110b5928201015f6110a8565b60209193508060019154838589010152019101909184926110c6565b9050602092506110b594915060ff191682840152151560051b8201015f6110a8565b90918060409360208452816020850152848401375f828201840152601f01601f1916010190565b6001600160a01b03909116919082156112d1575f828152600260205260409020546001600160a01b03169282903315158061123c575b5084611209575b805f52600360205260405f2060018154019055815f52600260205260405f20816bffffffffffffffffffffffff60a01b825416179055847fddf252ad1be2c89b69c2b068fc378daa952ba7f163c4a11628f55a4df523b3ef5f80a46001600160a01b03168083036111f157505050565b6364283d7b60e01b5f5260045260245260445260645ffd5b5f82815260046020526040902080546001600160a01b0319169055845f52600360205260405f205f198154019055611181565b90915080611280575b156112525782905f61117a565b828461126a57637e27328960e01b5f5260045260245ffd5b63177e802f60e01b5f523360045260245260445ffd5b5033841480156112af575b8061124557505f838152600460205260409020546001600160a01b03163314611245565b505f84815260056020908152604080832033845290915290205460ff1661128b565b633250574960e11b5f525f60045260245ffd5b5f52600860205260405f2060ff60026040519261130084610feb565b80546001600160a01b031684526113196001820161107d565b602085015201541615156040820181905290516001600160a01b03161561133d5790565b505f90565b929161134f818386611144565b813b61135c575b50505050565b604051630a85bd0160e11b81523360048201526001600160a01b03948516602482015260448101919091526080606482015292169190602090829081906113a7906084830190610f24565b03815f865af15f918161143d575b5061140a57503d15611403573d6113cb81611029565b906113d96040519283611007565b81523d5f602083013e5b805190816113fe5782633250574960e11b5f5260045260245ffd5b602001fd5b60606113e3565b6001600160e01b03191663757a42ff60e11b0161142b57505f808080611356565b633250574960e11b5f5260045260245ffd5b9091506020813d60201161147a575b8161145960209383611007565b8101031261019f57516001600160e01b03198116810361019f57905f6113b5565b3d915061144c565b5f818152600260205260409020546001600160a01b03169081156114a4575090565b637e27328960e01b5f5260045260245ffd5b6006546001600160a01b031633036114ca57565b63118cdaa760e01b5f523360045260245ffd5b5f81815260086020526040902080549091906001600160a01b0316156109e4575090565b5f828152600260205260409020546001600160a01b0316919082611592575b6001600160a01b03168061157a575b815f52600260205260405f20816bffffffffffffffffffffffff60a01b825416179055827fddf252ad1be2c89b69c2b068fc378daa952ba7f163c4a11628f55a4df523b3ef5f80a490565b805f52600360205260405f206001815401905561152f565b5f82815260046020526040902080546001600160a01b0319169055825f52600360205260405f205f19815401905561152056fea2646970667358221220c27d4f0147959463109d93e4efb1d5a53de07e640e923372b54806eab54a753464736f6c634300081e0033","linkReferences":{}},"methodIdentifiers":{"agentIdByController(address)":"9c996edb","approve(address,uint256)":"095ea7b3","balanceOf(address)":"70a08231","getAgent(uint256)":"2de5aaf7","getApproved(uint256)":"081812fc","isActive(uint256)":"82afd23b","isApprovedForAll(address,address)":"e985e9c5","name()":"06fdde03","owner()":"8da5cb5b","ownerOf(uint256)":"6352211e","registerAgent(address,string)":"22b833d8","renounceOwnership()":"715018a6","safeTransferFrom(address,address,uint256)":"42842e0e","safeTransferFrom(address,address,uint256,bytes)":"b88d4fde","setAgentStatus(uint256,bool)":"1bc51e7d","setApprovalForAll(address,bool)":"a22cb465","setController(uint256,address)":"3e5779ee","supportsInterface(bytes4)":"01ffc9a7","symbol()":"95d89b41","tokenURI(uint256)":"c87b56dd","transferFrom(address,address,uint256)":"23b872dd","transferOwnership(address)":"f2fde38b","updateMetadata(uint256,string)":"53c8388e"},"id":56}