{"abi":[{"type":"constructor","inputs":[{"name":"owner","type":"address","internalType":"address"}],"stateMutability":"nonpayable"},{"type":"function","name":"BURNER_ROLE","inputs":[],"outputs":[{"name":"","type":"bytes32","internalType":"bytes32"}],"stateMutability":"view"},{"type":"function","name":"DEFAULT_ADMIN_ROLE","inputs":[],"outputs":[{"name":"","type":"bytes32","internalType":"bytes32"}],"stateMutability":"view"},{"type":"function","name":"MINTER_ROLE","inputs":[],"outputs":[{"name":"","type":"bytes32","internalType":"bytes32"}],"stateMutability":"view"},{"type":"function","name":"allowance","inputs":[{"name":"owner","type":"address","internalType":"address"},{"name":"spender","type":"address","internalType":"address"}],"outputs":[{"name":"","type":"uint256","internalType":"uint256"}],"stateMutability":"view"},{"type":"function","name":"approve","inputs":[{"name":"spender","type":"address","internalType":"address"},{"name":"value","type":"uint256","internalType":"uint256"}],"outputs":[{"name":"","type":"bool","internalType":"bool"}],"stateMutability":"nonpayable"},{"type":"function","name":"balanceOf","inputs":[{"name":"account","type":"address","internalType":"address"}],"outputs":[{"name":"","type":"uint256","internalType":"uint256"}],"stateMutability":"view"},{"type":"function","name":"burn","inputs":[{"name":"value","type":"uint256","internalType":"uint256"}],"outputs":[],"stateMutability":"nonpayable"},{"type":"function","name":"burnFrom","inputs":[{"name":"account","type":"address","internalType":"address"},{"name":"value","type":"uint256","internalType":"uint256"}],"outputs":[],"stateMutability":"nonpayable"},{"type":"function","name":"decimals","inputs":[],"outputs":[{"name":"","type":"uint8","internalType":"uint8"}],"stateMutability":"view"},{"type":"function","name":"getRoleAdmin","inputs":[{"name":"role","type":"bytes32","internalType":"bytes32"}],"outputs":[{"name":"","type":"bytes32","internalType":"bytes32"}],"stateMutability":"view"},{"type":"function","name":"grantMinterRole","inputs":[{"name":"account","type":"address","internalType":"address"}],"outputs":[],"stateMutability":"nonpayable"},{"type":"function","name":"grantRole","inputs":[{"name":"role","type":"bytes32","internalType":"bytes32"},{"name":"account","type":"address","internalType":"address"}],"outputs":[],"stateMutability":"nonpayable"},{"type":"function","name":"hasRole","inputs":[{"name":"role","type":"bytes32","internalType":"bytes32"},{"name":"account","type":"address","internalType":"address"}],"outputs":[{"name":"","type":"bool","internalType":"bool"}],"stateMutability":"view"},{"type":"function","name":"mint","inputs":[{"name":"to","type":"address","internalType":"address"},{"name":"amount","type":"uint256","internalType":"uint256"}],"outputs":[],"stateMutability":"nonpayable"},{"type":"function","name":"name","inputs":[],"outputs":[{"name":"","type":"string","internalType":"string"}],"stateMutability":"view"},{"type":"function","name":"renounceRole","inputs":[{"name":"role","type":"bytes32","internalType":"bytes32"},{"name":"callerConfirmation","type":"address","internalType":"address"}],"outputs":[],"stateMutability":"nonpayable"},{"type":"function","name":"revokeMinterRole","inputs":[{"name":"account","type":"address","internalType":"address"}],"outputs":[],"stateMutability":"nonpayable"},{"type":"function","name":"revokeRole","inputs":[{"name":"role","type":"bytes32","internalType":"bytes32"},{"name":"account","type":"address","internalType":"address"}],"outputs":[],"stateMutability":"nonpayable"},{"type":"function","name":"supportsInterface","inputs":[{"name":"interfaceId","type":"bytes4","internalType":"bytes4"}],"outputs":[{"name":"","type":"bool","internalType":"bool"}],"stateMutability":"view"},{"type":"function","name":"symbol","inputs":[],"outputs":[{"name":"","type":"string","internalType":"string"}],"stateMutability":"view"},{"type":"function","name":"totalSupply","inputs":[],"outputs":[{"name":"","type":"uint256","internalType":"uint256"}],"stateMutability":"view"},{"type":"function","name":"transfer","inputs":[{"name":"to","type":"address","internalType":"address"},{"name":"value","type":"uint256","internalType":"uint256"}],"outputs":[{"name":"","type":"bool","internalType":"bool"}],"stateMutability":"nonpayable"},{"type":"function","name":"transferFrom","inputs":[{"name":"from","type":"address","internalType":"address"},{"name":"to","type":"address","internalType":"address"},{"name":"value","type":"uint256","internalType":"uint256"}],"outputs":[{"name":"","type":"bool","internalType":"bool"}],"stateMutability":"nonpayable"},{"type":"event","name":"Approval","inputs":[{"name":"owner","type":"address","indexed":true,"internalType":"address"},{"name":"spender","type":"address","indexed":true,"internalType":"address"},{"name":"value","type":"uint256","indexed":false,"internalType":"uint256"}],"anonymous":false},{"type":"event","name":"MinterRoleGranted","inputs":[{"name":"account","type":"address","indexed":true,"internalType":"address"}],"anonymous":false},{"type":"event","name":"MinterRoleRevoked","inputs":[{"name":"account","type":"address","indexed":true,"internalType":"address"}],"anonymous":false},{"type":"event","name":"RoleAdminChanged","inputs":[{"name":"role","type":"bytes32","indexed":true,"internalType":"bytes32"},{"name":"previousAdminRole","type":"bytes32","indexed":true,"internalType":"bytes32"},{"name":"newAdminRole","type":"bytes32","indexed":true,"internalType":"bytes32"}],"anonymous":false},{"type":"event","name":"RoleGranted","inputs":[{"name":"role","type":"bytes32","indexed":true,"internalType":"bytes32"},{"name":"account","type":"address","indexed":true,"internalType":"address"},{"name":"sender","type":"address","indexed":true,"internalType":"address"}],"anonymous":false},{"type":"event","name":"RoleRevoked","inputs":[{"name":"role","type":"bytes32","indexed":true,"internalType":"bytes32"},{"name":"account","type":"address","indexed":true,"internalType":"address"},{"name":"sender","type":"address","indexed":true,"internalType":"address"}],"anonymous":false},{"type":"event","name":"Transfer","inputs":[{"name":"from","type":"address","indexed":true,"internalType":"address"},{"name":"to","type":"address","indexed":true,"internalType":"address"},{"name":"value","type":"uint256","indexed":false,"internalType":"uint256"}],"anonymous":false},{"type":"error","name":"AccessControlBadConfirmation","inputs":[]},{"type":"error","name":"AccessControlUnauthorizedAccount","inputs":[{"name":"account","type":"address","internalType":"address"},{"name":"neededRole","type":"bytes32","internalType":"bytes32"}]},{"type":"error","name":"ERC20InsufficientAllowance","inputs":[{"name":"spender","type":"address","internalType":"address"},{"name":"allowance","type":"uint256","internalType":"uint256"},{"name":"needed","type":"uint256","internalType":"uint256"}]},{"type":"error","name":"ERC20InsufficientBalance","inputs":[{"name":"sender","type":"address","internalType":"address"},{"name":"balance","type":"uint256","internalType":"uint256"},{"name":"needed","type":"uint256","internalType":"uint256"}]},{"type":"error","name":"ERC20InvalidApprover","inputs":[{"name":"approver","type":"address","internalType":"address"}]},{"type":"error","name":"ERC20InvalidReceiver","inputs":[{"name":"receiver","type":"address","internalType":"address"}]},{"type":"error","name":"ERC20InvalidSender","inputs":[{"name":"sender","type":"address","internalType":"address"}]},{"type":"error","name":"ERC20InvalidSpender","inputs":[{"name":"spender","type":"address","internalType":"address"}]}],"bytecode":{"object":"0x60806040523461034c576113c96020813803918261001c81610350565b93849283398101031261034c57516001600160a01b038116810361034c576100446040610350565b90600a82526926a2a228902a37b5b2b760b11b60208301526100666040610350565b60048152634d45445160e01b602082015282519091906001600160401b03811161025d57600354600181811c91168015610342575b602082101461023f57601f81116102df575b506020601f821160011461027c57819293945f92610271575b50508160011b915f199060031b1c1916176003555b8151916001600160401b03831161025d57600454600181811c91168015610253575b602082101461023f57601f81116101dc575b50602090601f84116001146101745761015993915f9183610169575b50508160011b915f199060031b1c1916176004555b61014981610375565b50610153816103eb565b5061047e565b50604051610e3790816105128239f35b015190505f8061012b565b90601f1984169160045f52815f20925f5b8181106101c457509160019391866101599794106101ac575b505050811b01600455610140565b01515f1960f88460031b161c191690555f808061019e565b92936020600181928786015181550195019301610185565b60045f527f8a35acfbc15ff81a39ae7d344fd709f28e8600b4aa8c65c6b64bfe7fe36bd19b601f850160051c81019160208610610235575b601f0160051c01905b81811061022a575061010f565b5f815560010161021d565b9091508190610214565b634e487b7160e01b5f52602260045260245ffd5b90607f16906100fd565b634e487b7160e01b5f52604160045260245ffd5b015190505f806100c6565b601f1982169060035f52805f20915f5b8181106102c7575095836001959697106102af575b505050811b016003556100db565b01515f1960f88460031b161c191690555f80806102a1565b9192602060018192868b01518155019401920161028c565b60035f527fc2575a0e9e593c00f959f8c92f12db2869c3395a3b0502d05e2516446f71f85b601f830160051c81019160208410610338575b601f0160051c01905b81811061032d57506100ad565b5f8155600101610320565b9091508190610317565b90607f169061009b565b5f80fd5b6040519190601f01601f191682016001600160401b0381118382101761025d57604052565b6001600160a01b0381165f9081525f5160206113a95f395f51905f52602052604090205460ff166103e6576001600160a01b03165f8181525f5160206113a95f395f51905f5260205260408120805460ff191660011790553391905f5160206113495f395f51905f528180a4600190565b505f90565b6001600160a01b0381165f9081525f5160206113695f395f51905f52602052604090205460ff166103e6576001600160a01b03165f8181525f5160206113695f395f51905f5260205260408120805460ff191660011790553391907f9f2df0fed2c77648de5860a4cc508cd0818c85b8b8a1ab4ceeef8d981c8956a6905f5160206113495f395f51905f529080a4600190565b6001600160a01b0381165f9081525f5160206113895f395f51905f52602052604090205460ff166103e6576001600160a01b03165f8181525f5160206113895f395f51905f5260205260408120805460ff191660011790553391907f3c11d16cbaffd01df69ce1c404f6340ee057498f5f00246190ea54220576a848905f5160206113495f395f51905f529080a460019056fe6080806040526004361015610012575f80fd5b5f3560e01c90816301ffc9a7146108855750806306fdde03146107b3578063095ea7b31461070b57806318160ddd146106ee57806323b872dd146106b6578063248a9ca314610683578063282c51f3146106495780632f2ff15d1461060b578063313ce567146105f057806336568abe146105ac5780633dd1eb611461055257806340c10f191461046657806342966c681461044957806369e2f0fb146103ef57806370a08231146103b857806379cc67901461038857806391d148541461033f57806395d89b4114610224578063a217fddf1461020a578063a9059cbb146101d9578063d5391393146101b2578063d547741f1461016d5763dd62ed3e14610119575f80fd5b3461016957604036600319011261016957610132610902565b61013a610918565b6001600160a01b039182165f908152600160209081526040808320949093168252928352819020549051908152f35b5f80fd5b34610169576040366003190112610169576101b060043561018c610918565b906101ab6101a6825f526005602052600160405f20015490565b610aca565b610cb9565b005b34610169575f3660031901126101695760206040515f516020610de25f395f51905f528152f35b34610169576040366003190112610169576101ff6101f5610902565b60243590336109d1565b602060405160018152f35b34610169575f3660031901126101695760206040515f8152f35b34610169575f366003190112610169576040515f6004548060011c90600181168015610335575b6020831081146103215782855290811561030557506001146102b0575b50819003601f01601f191681019067ffffffffffffffff82118183101761029c57610298829182604052826108d8565b0390f35b634e487b7160e01b5f52604160045260245ffd5b905060045f527f8a35acfbc15ff81a39ae7d344fd709f28e8600b4aa8c65c6b64bfe7fe36bd19b5f905b8282106102ef57506020915082010182610268565b60018160209254838588010152019101906102da565b90506020925060ff191682840152151560051b82010182610268565b634e487b7160e01b5f52602260045260245ffd5b91607f169161024b565b3461016957604036600319011261016957610358610918565b6004355f52600560205260405f209060018060a01b03165f52602052602060ff60405f2054166040519015158152f35b34610169576040366003190112610169576101b06103a4610902565b602435906103b382338361092e565b610d3d565b34610169576020366003190112610169576001600160a01b036103d9610902565b165f525f602052602060405f2054604051908152f35b3461016957602036600319011261016957610408610902565b610410610a7b565b61041981610c28565b506001600160a01b03167ff474b72f3e21ebafdad7dadfcb99ae7eabdbf538d52a0e0eecbf8ce0fa7043fe5f80a2005b34610169576020366003190112610169576101b060043533610d3d565b346101695760403660031901126101695761047f610902565b335f9081525f516020610dc25f395f51905f526020526040902054602435919060ff161561052e576001600160a01b031690811561051b57600254908082018092116105075760207fddf252ad1be2c89b69c2b068fc378daa952ba7f163c4a11628f55a4df523b3ef915f9360025584845283825260408420818154019055604051908152a3005b634e487b7160e01b5f52601160045260245ffd5b63ec442f0560e01b5f525f60045260245ffd5b63e2517d3f60e01b5f52336004525f516020610de25f395f51905f5260245260445ffd5b346101695760203660031901126101695761056b610902565b610573610a7b565b61057c81610b04565b506001600160a01b03167fbd42b6cd963a984d8cbff85acad4dd2c87a6d85ac756d16e6d2ec5ce6c8f07305f80a2005b34610169576040366003190112610169576105c5610918565b336001600160a01b038216036105e1576101b090600435610cb9565b63334bd91960e11b5f5260045ffd5b34610169575f36600319011261016957602060405160128152f35b34610169576040366003190112610169576101b060043561062a610918565b906106446101a6825f526005602052600160405f20015490565b610b9c565b34610169575f3660031901126101695760206040517f3c11d16cbaffd01df69ce1c404f6340ee057498f5f00246190ea54220576a8488152f35b346101695760203660031901126101695760206106ae6004355f526005602052600160405f20015490565b604051908152f35b34610169576060366003190112610169576101ff6106d2610902565b6106da610918565b604435916106e983338361092e565b6109d1565b34610169575f366003190112610169576020600254604051908152f35b3461016957604036600319011261016957610724610902565b6024359033156107a0576001600160a01b031690811561078d57335f52600160205260405f20825f526020528060405f20556040519081527f8c5be1e5ebec7d5bd14f71427d1e84f3dd0314c0f7b2291e5b200ac8c7c3b92560203392a3602060405160018152f35b634a1406b160e11b5f525f60045260245ffd5b63e602df0560e01b5f525f60045260245ffd5b34610169575f366003190112610169576040515f6003548060011c9060018116801561087b575b6020831081146103215782855290811561030557506001146108265750819003601f01601f191681019067ffffffffffffffff82118183101761029c57610298829182604052826108d8565b905060035f527fc2575a0e9e593c00f959f8c92f12db2869c3395a3b0502d05e2516446f71f85b5f905b82821061086557506020915082010182610268565b6001816020925483858801015201910190610850565b91607f16916107da565b34610169576020366003190112610169576004359063ffffffff60e01b821680920361016957602091637965db0b60e01b81149081156108c7575b5015158152f35b6301ffc9a760e01b149050836108c0565b602060409281835280519182918282860152018484015e5f828201840152601f01601f1916010190565b600435906001600160a01b038216820361016957565b602435906001600160a01b038216820361016957565b6001600160a01b039081165f818152600160209081526040808320948616835293905291909120549291905f198410610968575b50505050565b8284106109ae5780156107a0576001600160a01b0382161561078d575f52600160205260405f209060018060a01b03165f5260205260405f20910390555f808080610962565b508290637dc7a0d960e11b5f5260018060a01b031660045260245260445260645ffd5b6001600160a01b0316908115610a68576001600160a01b031691821561051b57815f525f60205260405f2054818110610a4f57817fddf252ad1be2c89b69c2b068fc378daa952ba7f163c4a11628f55a4df523b3ef92602092855f525f84520360405f2055845f525f825260405f20818154019055604051908152a3565b8263391434e360e21b5f5260045260245260445260645ffd5b634b637e8f60e11b5f525f60045260245ffd5b335f9081527f05b8ccbb9d4d8fb16ea74ce3c29a41f1b461fbdaff4714a0d9a8eb05499746bc602052604090205460ff1615610ab357565b63e2517d3f60e01b5f52336004525f60245260445ffd5b5f81815260056020908152604080832033845290915290205460ff1615610aee5750565b63e2517d3f60e01b5f523360045260245260445ffd5b6001600160a01b0381165f9081525f516020610dc25f395f51905f52602052604090205460ff16610b97576001600160a01b03165f8181525f516020610dc25f395f51905f5260205260408120805460ff191660011790553391905f516020610de25f395f51905f52907f2f8788117e7eff1d82e926ec794901d17c78024a50270940304540a733656f0d9080a4600190565b505f90565b5f8181526005602090815260408083206001600160a01b038616845290915290205460ff16610c22575f8181526005602090815260408083206001600160a01b0395909516808452949091528120805460ff19166001179055339291907f2f8788117e7eff1d82e926ec794901d17c78024a50270940304540a733656f0d9080a4600190565b50505f90565b6001600160a01b0381165f9081525f516020610dc25f395f51905f52602052604090205460ff1615610b97576001600160a01b03165f8181525f516020610dc25f395f51905f5260205260408120805460ff191690553391905f516020610de25f395f51905f52907ff6391f5c32d9c69d2a47ea670b442974b53935d1edc7fd64eb21e047a839171b9080a4600190565b5f8181526005602090815260408083206001600160a01b038616845290915290205460ff1615610c22575f8181526005602090815260408083206001600160a01b0395909516808452949091528120805460ff19169055339291907ff6391f5c32d9c69d2a47ea670b442974b53935d1edc7fd64eb21e047a839171b9080a4600190565b9091906001600160a01b03168015610a6857805f525f60205260405f2054838110610da7576020845f94957fddf252ad1be2c89b69c2b068fc378daa952ba7f163c4a11628f55a4df523b3ef938587528684520360408620558060025403600255604051908152a3565b915063391434e360e21b5f5260045260245260445260645ffdfe15a28d26fa1bf736cf7edc9922607171ccb09c3c73b808e7772a3013e068a5229f2df0fed2c77648de5860a4cc508cd0818c85b8b8a1ab4ceeef8d981c8956a6a264697066735822122093bc1a8e9ee4b065b33daa21109778eec5c826c8c33e332c8598e72ab9b902c264736f6c634300081e00332f8788117e7eff1d82e926ec794901d17c78024a50270940304540a733656f0d15a28d26fa1bf736cf7edc9922607171ccb09c3c73b808e7772a3013e068a522847f481f687befb06ed3511f1a8dcef57e83007c0147ae5047583d705617093705b8ccbb9d4d8fb16ea74ce3c29a41f1b461fbdaff4714a0d9a8eb05499746bc","linkReferences":{}},"methodIdentifiers":{"BURNER_ROLE()":"282c51f3","DEFAULT_ADMIN_ROLE()":"a217fddf","MINTER_ROLE()":"d5391393","allowance(address,address)":"dd62ed3e","approve(address,uint256)":"095ea7b3","balanceOf(address)":"70a08231","burn(uint256)":"42966c68","burnFrom(address,uint256)":"79cc6790","decimals()":"313ce567","getRoleAdmin(bytes32)":"248a9ca3","grantMinterRole(address)":"3dd1eb61","grantRole(bytes32,address)":"2f2ff15d","hasRole(bytes32,address)":"91d14854","mint(address,uint256)":"40c10f19","name()":"06fdde03","renounceRole(bytes32,address)":"36568abe","revokeMinterRole(address)":"69e2f0fb","revokeRole(bytes32,address)":"d547741f","supportsInterface(bytes4)":"01ffc9a7","symbol()":"95d89b41","totalSupply()":"18160ddd","transfer(address,uint256)":"a9059cbb","transferFrom(address,address,uint256)":"23b872dd"},"id":59}