{
  "abi": [
    {
      "type": "constructor",
      "inputs": [
        {
          "name": "owner_",
          "type": "address",
          "internalType": "address"
        }
      ],
      "stateMutability": "nonpayable"
    },
    {
      "type": "function",
      "name": "MAX_FEE_BPS",
      "inputs": [],
      "outputs": [
        {
          "name": "",
          "type": "uint256",
          "internalType": "uint256"
        }
      ],
      "stateMutability": "view"
    },
    {
      "type": "function",
      "name": "campaignBalance",
      "inputs": [
        {
          "name": "campaignId",
          "type": "bytes32",
          "internalType": "bytes32"
        }
      ],
      "outputs": [
        {
          "name": "",
          "type": "uint256",
          "internalType": "uint256"
        }
      ],
      "stateMutability": "view"
    },
    {
      "type": "function",
      "name": "deposit",
      "inputs": [
        {
          "name": "campaignId",
          "type": "bytes32",
          "internalType": "bytes32"
        },
        {
          "name": "amount",
          "type": "uint256",
          "internalType": "uint256"
        }
      ],
      "outputs": [],
      "stateMutability": "nonpayable"
    },
    {
      "type": "function",
      "name": "feeBps",
      "inputs": [],
      "outputs": [
        {
          "name": "",
          "type": "uint256",
          "internalType": "uint256"
        }
      ],
      "stateMutability": "view"
    },
    {
      "type": "function",
      "name": "feeCollector",
      "inputs": [],
      "outputs": [
        {
          "name": "",
          "type": "address",
          "internalType": "address"
        }
      ],
      "stateMutability": "view"
    },
    {
      "type": "function",
      "name": "getDepositAmountForPool",
      "inputs": [
        {
          "name": "poolAmount",
          "type": "uint256",
          "internalType": "uint256"
        }
      ],
      "outputs": [
        {
          "name": "",
          "type": "uint256",
          "internalType": "uint256"
        }
      ],
      "stateMutability": "view"
    },
    {
      "type": "function",
      "name": "getFeeAndPoolAmount",
      "inputs": [
        {
          "name": "depositAmount",
          "type": "uint256",
          "internalType": "uint256"
        }
      ],
      "outputs": [
        {
          "name": "feeAmount",
          "type": "uint256",
          "internalType": "uint256"
        },
        {
          "name": "poolAmount",
          "type": "uint256",
          "internalType": "uint256"
        }
      ],
      "stateMutability": "view"
    },
    {
      "type": "function",
      "name": "owner",
      "inputs": [],
      "outputs": [
        {
          "name": "",
          "type": "address",
          "internalType": "address"
        }
      ],
      "stateMutability": "view"
    },
    {
      "type": "function",
      "name": "releaseReward",
      "inputs": [
        {
          "name": "campaignId",
          "type": "bytes32",
          "internalType": "bytes32"
        },
        {
          "name": "recipient",
          "type": "address",
          "internalType": "address"
        },
        {
          "name": "amount",
          "type": "uint256",
          "internalType": "uint256"
        }
      ],
      "outputs": [],
      "stateMutability": "nonpayable"
    },
    {
      "type": "function",
      "name": "refundToPartner",
      "inputs": [
        {
          "name": "campaignId",
          "type": "bytes32",
          "internalType": "bytes32"
        },
        {
          "name": "recipient",
          "type": "address",
          "internalType": "address"
        },
        {
          "name": "amount",
          "type": "uint256",
          "internalType": "uint256"
        }
      ],
      "outputs": [],
      "stateMutability": "nonpayable"
    },
    {
      "type": "function",
      "name": "renounceOwnership",
      "inputs": [],
      "outputs": [],
      "stateMutability": "nonpayable"
    },
    {
      "type": "function",
      "name": "rewardReleaser",
      "inputs": [],
      "outputs": [
        {
          "name": "",
          "type": "address",
          "internalType": "address"
        }
      ],
      "stateMutability": "view"
    },
    {
      "type": "function",
      "name": "rewardToken",
      "inputs": [],
      "outputs": [
        {
          "name": "",
          "type": "address",
          "internalType": "contract IERC20"
        }
      ],
      "stateMutability": "view"
    },
    {
      "type": "function",
      "name": "setFeeBps",
      "inputs": [
        {
          "name": "bps",
          "type": "uint256",
          "internalType": "uint256"
        }
      ],
      "outputs": [],
      "stateMutability": "nonpayable"
    },
    {
      "type": "function",
      "name": "setFeeCollector",
      "inputs": [
        {
          "name": "collector",
          "type": "address",
          "internalType": "address"
        }
      ],
      "outputs": [],
      "stateMutability": "nonpayable"
    },
    {
      "type": "function",
      "name": "setRewardReleaser",
      "inputs": [
        {
          "name": "releaser_",
          "type": "address",
          "internalType": "address"
        }
      ],
      "outputs": [],
      "stateMutability": "nonpayable"
    },
    {
      "type": "function",
      "name": "setRewardToken",
      "inputs": [
        {
          "name": "tokenAddress",
          "type": "address",
          "internalType": "address"
        }
      ],
      "outputs": [],
      "stateMutability": "nonpayable"
    },
    {
      "type": "function",
      "name": "transferOwnership",
      "inputs": [
        {
          "name": "newOwner",
          "type": "address",
          "internalType": "address"
        }
      ],
      "outputs": [],
      "stateMutability": "nonpayable"
    },
    {
      "type": "event",
      "name": "Deposited",
      "inputs": [
        {
          "name": "campaignId",
          "type": "bytes32",
          "indexed": true,
          "internalType": "bytes32"
        },
        {
          "name": "depositor",
          "type": "address",
          "indexed": true,
          "internalType": "address"
        },
        {
          "name": "amount",
          "type": "uint256",
          "indexed": false,
          "internalType": "uint256"
        },
        {
          "name": "feeAmount",
          "type": "uint256",
          "indexed": false,
          "internalType": "uint256"
        }
      ],
      "anonymous": false
    },
    {
      "type": "event",
      "name": "FeeCollectorUpdated",
      "inputs": [
        {
          "name": "newCollector",
          "type": "address",
          "indexed": true,
          "internalType": "address"
        }
      ],
      "anonymous": false
    },
    {
      "type": "event",
      "name": "FeeUpdated",
      "inputs": [
        {
          "name": "newFeeBps",
          "type": "uint256",
          "indexed": false,
          "internalType": "uint256"
        }
      ],
      "anonymous": false
    },
    {
      "type": "event",
      "name": "OwnershipTransferred",
      "inputs": [
        {
          "name": "previousOwner",
          "type": "address",
          "indexed": true,
          "internalType": "address"
        },
        {
          "name": "newOwner",
          "type": "address",
          "indexed": true,
          "internalType": "address"
        }
      ],
      "anonymous": false
    },
    {
      "type": "event",
      "name": "Refunded",
      "inputs": [
        {
          "name": "campaignId",
          "type": "bytes32",
          "indexed": true,
          "internalType": "bytes32"
        },
        {
          "name": "recipient",
          "type": "address",
          "indexed": true,
          "internalType": "address"
        },
        {
          "name": "amount",
          "type": "uint256",
          "indexed": false,
          "internalType": "uint256"
        }
      ],
      "anonymous": false
    },
    {
      "type": "event",
      "name": "Released",
      "inputs": [
        {
          "name": "campaignId",
          "type": "bytes32",
          "indexed": true,
          "internalType": "bytes32"
        },
        {
          "name": "recipient",
          "type": "address",
          "indexed": true,
          "internalType": "address"
        },
        {
          "name": "amount",
          "type": "uint256",
          "indexed": false,
          "internalType": "uint256"
        }
      ],
      "anonymous": false
    },
    {
      "type": "event",
      "name": "RewardReleaserUpdated",
      "inputs": [
        {
          "name": "newReleaser",
          "type": "address",
          "indexed": true,
          "internalType": "address"
        }
      ],
      "anonymous": false
    },
    {
      "type": "event",
      "name": "RewardTokenUpdated",
      "inputs": [
        {
          "name": "newToken",
          "type": "address",
          "indexed": true,
          "internalType": "address"
        }
      ],
      "anonymous": false
    },
    {
      "type": "error",
      "name": "CampaignEscrow__FeeBpsTooHigh",
      "inputs": []
    },
    {
      "type": "error",
      "name": "CampaignEscrow__HtsAssociationFailed",
      "inputs": [
        {
          "name": "responseCode",
          "type": "int32",
          "internalType": "int32"
        }
      ]
    },
    {
      "type": "error",
      "name": "CampaignEscrow__InsufficientBalance",
      "inputs": [
        {
          "name": "campaignId",
          "type": "bytes32",
          "internalType": "bytes32"
        },
        {
          "name": "requested",
          "type": "uint256",
          "internalType": "uint256"
        },
        {
          "name": "available",
          "type": "uint256",
          "internalType": "uint256"
        }
      ]
    },
    {
      "type": "error",
      "name": "CampaignEscrow__InvalidFeeCollector",
      "inputs": []
    },
    {
      "type": "error",
      "name": "CampaignEscrow__InvalidReleaser",
      "inputs": []
    },
    {
      "type": "error",
      "name": "CampaignEscrow__OnlyRewardReleaser",
      "inputs": []
    },
    {
      "type": "error",
      "name": "CampaignEscrow__TokenNotConfigured",
      "inputs": []
    },
    {
      "type": "error",
      "name": "CampaignEscrow__ZeroAmount",
      "inputs": []
    },
    {
      "type": "error",
      "name": "OwnableInvalidOwner",
      "inputs": [
        {
          "name": "owner",
          "type": "address",
          "internalType": "address"
        }
      ]
    },
    {
      "type": "error",
      "name": "OwnableUnauthorizedAccount",
      "inputs": [
        {
          "name": "account",
          "type": "address",
          "internalType": "address"
        }
      ]
    },
    {
      "type": "error",
      "name": "SafeERC20FailedOperation",
      "inputs": [
        {
          "name": "token",
          "type": "address",
          "internalType": "address"
        }
      ]
    }
  ],
  "bytecode": {
    "object": "0x60803460d157601f610a9d38819003918201601f19168301916001600160401b0383118484101760d55780849260209460405283398101031260d157516001600160a01b0381169081900360d157801560be575f80546001600160a01b0319811683178255604051929182916001600160a01b0316907f8be0079c531659141344cd1fd0a4f28419497f9722a3daafe3b4186f6b6457e09080a36032600355600480546001600160a01b0319169190911790556109b390816100ea8239f35b631e4fbdf760e01b5f525f60045260245ffd5b5f80fd5b634e487b7160e01b5f52604160045260245ffdfe6080806040526004361015610012575f80fd5b5f3560e01c9081630372da8e14610767575080631677f26e146107045780631de26e16146105a157806320bb7504146104a35780632345a1d91461042c57806324a9d8531461040f5780636f533bb9146103d3578063715018a61461037c57806372c27b62146103175780638aee8127146102945780638da5cb5b1461026d578063a42dce80146101f6578063c415b95c146101ce578063c7831972146101a4578063d55be8c614610188578063f2fde38b146101035763f7c618c1146100d7575f80fd5b346100ff575f3660031901126100ff576002546040516001600160a01b039091168152602090f35b5f80fd5b346100ff5760203660031901126100ff5761011c61078a565b610124610838565b6001600160a01b03168015610175575f80546001600160a01b03198116831782556001600160a01b0316907f8be0079c531659141344cd1fd0a4f28419497f9722a3daafe3b4186f6b6457e09080a3005b631e4fbdf760e01b5f525f60045260245ffd5b346100ff575f3660031901126100ff5760206040516103e88152f35b346100ff5760203660031901126100ff576004355f526005602052602060405f2054604051908152f35b346100ff575f3660031901126100ff576004546040516001600160a01b039091168152602090f35b346100ff5760203660031901126100ff5761020f61078a565b610217610838565b6001600160a01b0316801561025e57600480546001600160a01b031916821790557fe5693914d19c789bdee50a362998c0bc8d035a835f9871da5d51152f0582c34f5f80a2005b63069dc53160e51b5f5260045ffd5b346100ff575f3660031901126100ff575f546040516001600160a01b039091168152602090f35b346100ff5760203660031901126100ff576102ad61078a565b6102b5610838565b6001600160a01b03811690811561030857600280546001600160a01b03191683179055610306917fa5289ba11778999f4dfb9415023783188d42bbb5db0612cbfbe55999069612a05f80a230610894565b005b630bc5794560e21b5f5260045ffd5b346100ff5760203660031901126100ff57600435610333610838565b6103e8811161036d576020817f8c4d35e54a3f2ef1134138fd8ea3daee6a3c89e10d2665996babdf70261e2c7692600355604051908152a1005b6391ff17d760e01b5f5260045ffd5b346100ff575f3660031901126100ff57610394610838565b5f80546001600160a01b0319811682556001600160a01b03167f8be0079c531659141344cd1fd0a4f28419497f9722a3daafe3b4186f6b6457e08280a3005b346100ff5760203660031901126100ff5760406004356104036127106103fb600354846107a0565b0480926107b3565b82519182526020820152f35b346100ff575f3660031901126100ff576020600354604051908152f35b346100ff5760203660031901126100ff5761044561078a565b61044d610838565b6001600160a01b0316801561049457600180546001600160a01b031916821790557fce2efe89001b12d3e95c1ebeb5b725abb14a27489ee9dd9947b136fa55376c7a5f80a2005b632aa4bc8160e21b5f5260045ffd5b346100ff5760603660031901126100ff576024356001600160a01b03811690600435908281036100ff5760015460443591906001600160a01b03163303610592576002546001600160a01b03161561030857811561058357825f52600560205260405f2054808311610569579161056081602093610542827fc8fa66dff4b9073528c3f1bf21a8dc9a18fdf09847e88e96188bc953aef519f0976107b3565b5f8881526005875260409020556002546001600160a01b03166107c0565b604051908152a3005b828463ddabf0f760e01b5f5260045260245260445260645ffd5b634ebaaac560e11b5f5260045ffd5b6338fb192360e01b5f5260045ffd5b346100ff5760403660031901126100ff5760025460243590600435906001600160a01b03168015610308578215610583576040516323b872dd60e01b5f5233600452306024528360445260205f60648180865af19060015f51148216156106e3575b6040525f606052156106d1575061062a612710610622600354856107a0565b0480936107b3565b91815f52600560205260405f208054908482018092116106bd5755801515806106a9575b610686575b60405192835260208301527f2dcdaad87b561ba5a69835009b4c53ef9d3c41ca6cc9574049187659d6c6a71560403393a3005b6002546004546106a49183916001600160a01b0390811691166107c0565b610653565b506004546001600160a01b0316151561064e565b634e487b7160e01b5f52601160045260245ffd5b635274afe760e01b5f5260045260245ffd5b9060018115166106fb57823b15153d15161690610603565b503d5f823e3d90fd5b346100ff5760203660031901126100ff5760043561271081029080820461271014901517156106bd5760035480612710039061271082116106bd57612710146107535760209104604051908152f35b634e487b7160e01b5f52601260045260245ffd5b346100ff575f3660031901126100ff576001546001600160a01b03168152602090f35b600435906001600160a01b03821682036100ff57565b818102929181159184041417156106bd57565b919082039182116106bd57565b916040519163a9059cbb60e01b5f5260018060a01b031660045260245260205f60448180865af19060015f5114821615610820575b604052156108005750565b635274afe760e01b5f9081526001600160a01b0391909116600452602490fd5b9060018115166106fb57823b15153d151616906107f5565b5f546001600160a01b0316330361084b57565b63118cdaa760e01b5f523360045260245ffd5b90601f8019910116810190811067ffffffffffffffff82111761088057604052565b634e487b7160e01b5f52604160045260245ffd5b60405163248a35ef60e11b602082019081526001600160a01b0392831660248301529290911660448083019190915281525f9182916108d460648261085e565b5190826101675af13d15610975573d9067ffffffffffffffff8211610880576040519161090b601f8201601f19166020018461085e565b82523d5f602084013e5b156109725780516020811061096e5781602091810103126100ff57602001518060030b8091036100ff57601681141580610963575b6109515750565b6305303aa160e31b5f5260045260245ffd5b5060c281141561094a565b5050565b50565b60609061091556fea2646970667358221220ed5adb3abf4e16b6dbc2d127806723225edf92f4e39b1709f936ea0ef5c75da664736f6c634300081e0033",
    "linkReferences": {}
  },
  "methodIdentifiers": {
    "MAX_FEE_BPS()": "d55be8c6",
    "campaignBalance(bytes32)": "c7831972",
    "deposit(bytes32,uint256)": "1de26e16",
    "feeBps()": "24a9d853",
    "feeCollector()": "c415b95c",
    "getDepositAmountForPool(uint256)": "1677f26e",
    "getFeeAndPoolAmount(uint256)": "6f533bb9",
    "owner()": "8da5cb5b",
    "releaseReward(bytes32,address,uint256)": "20bb7504",
    "renounceOwnership()": "715018a6",
    "rewardReleaser()": "0372da8e",
    "rewardToken()": "f7c618c1",
    "setFeeBps(uint256)": "72c27b62",
    "setFeeCollector(address)": "a42dce80",
    "setRewardReleaser(address)": "2345a1d9",
    "setRewardToken(address)": "8aee8127",
    "transferOwnership(address)": "f2fde38b"
  },
  "id": 24
}