{
    "abi": [
        {
            "type": "constructor",
            "inputs": [
                {
                    "name": "owner_",
                    "type": "address",
                    "internalType": "address"
                }
            ],
            "stateMutability": "nonpayable"
        },
        {
            "type": "function",
            "name": "campaignBalance",
            "inputs": [
                {
                    "name": "campaignId",
                    "type": "bytes32",
                    "internalType": "bytes32"
                }
            ],
            "outputs": [
                {
                    "name": "",
                    "type": "uint256",
                    "internalType": "uint256"
                }
            ],
            "stateMutability": "view"
        },
        {
            "type": "function",
            "name": "deposit",
            "inputs": [
                {
                    "name": "campaignId",
                    "type": "bytes32",
                    "internalType": "bytes32"
                },
                {
                    "name": "amount",
                    "type": "uint256",
                    "internalType": "uint256"
                }
            ],
            "outputs": [],
            "stateMutability": "nonpayable"
        },
        {
            "type": "function",
            "name": "owner",
            "inputs": [],
            "outputs": [
                {
                    "name": "",
                    "type": "address",
                    "internalType": "address"
                }
            ],
            "stateMutability": "view"
        },
        {
            "type": "function",
            "name": "releaseReward",
            "inputs": [
                {
                    "name": "campaignId",
                    "type": "bytes32",
                    "internalType": "bytes32"
                },
                {
                    "name": "recipient",
                    "type": "address",
                    "internalType": "address"
                },
                {
                    "name": "amount",
                    "type": "uint256",
                    "internalType": "uint256"
                }
            ],
            "outputs": [],
            "stateMutability": "nonpayable"
        },
        {
            "type": "function",
            "name": "renounceOwnership",
            "inputs": [],
            "outputs": [],
            "stateMutability": "nonpayable"
        },
        {
            "type": "function",
            "name": "rewardReleaser",
            "inputs": [],
            "outputs": [
                {
                    "name": "",
                    "type": "address",
                    "internalType": "address"
                }
            ],
            "stateMutability": "view"
        },
        {
            "type": "function",
            "name": "rewardToken",
            "inputs": [],
            "outputs": [
                {
                    "name": "",
                    "type": "address",
                    "internalType": "contract IERC20"
                }
            ],
            "stateMutability": "view"
        },
        {
            "type": "function",
            "name": "setRewardReleaser",
            "inputs": [
                {
                    "name": "releaser_",
                    "type": "address",
                    "internalType": "address"
                }
            ],
            "outputs": [],
            "stateMutability": "nonpayable"
        },
        {
            "type": "function",
            "name": "setRewardToken",
            "inputs": [
                {
                    "name": "tokenAddress",
                    "type": "address",
                    "internalType": "address"
                }
            ],
            "outputs": [],
            "stateMutability": "nonpayable"
        },
        {
            "type": "function",
            "name": "transferOwnership",
            "inputs": [
                {
                    "name": "newOwner",
                    "type": "address",
                    "internalType": "address"
                }
            ],
            "outputs": [],
            "stateMutability": "nonpayable"
        },
        {
            "type": "event",
            "name": "Deposited",
            "inputs": [
                {
                    "name": "campaignId",
                    "type": "bytes32",
                    "indexed": true,
                    "internalType": "bytes32"
                },
                {
                    "name": "depositor",
                    "type": "address",
                    "indexed": true,
                    "internalType": "address"
                },
                {
                    "name": "amount",
                    "type": "uint256",
                    "indexed": false,
                    "internalType": "uint256"
                }
            ],
            "anonymous": false
        },
        {
            "type": "event",
            "name": "OwnershipTransferred",
            "inputs": [
                {
                    "name": "previousOwner",
                    "type": "address",
                    "indexed": true,
                    "internalType": "address"
                },
                {
                    "name": "newOwner",
                    "type": "address",
                    "indexed": true,
                    "internalType": "address"
                }
            ],
            "anonymous": false
        },
        {
            "type": "event",
            "name": "Released",
            "inputs": [
                {
                    "name": "campaignId",
                    "type": "bytes32",
                    "indexed": true,
                    "internalType": "bytes32"
                },
                {
                    "name": "recipient",
                    "type": "address",
                    "indexed": true,
                    "internalType": "address"
                },
                {
                    "name": "amount",
                    "type": "uint256",
                    "indexed": false,
                    "internalType": "uint256"
                }
            ],
            "anonymous": false
        },
        {
            "type": "event",
            "name": "RewardReleaserUpdated",
            "inputs": [
                {
                    "name": "newReleaser",
                    "type": "address",
                    "indexed": true,
                    "internalType": "address"
                }
            ],
            "anonymous": false
        },
        {
            "type": "event",
            "name": "RewardTokenUpdated",
            "inputs": [
                {
                    "name": "newToken",
                    "type": "address",
                    "indexed": true,
                    "internalType": "address"
                }
            ],
            "anonymous": false
        },
        {
            "type": "error",
            "name": "CampaignEscrow__HtsAssociationFailed",
            "inputs": [
                {
                    "name": "responseCode",
                    "type": "int32",
                    "internalType": "int32"
                }
            ]
        },
        {
            "type": "error",
            "name": "CampaignEscrow__InsufficientBalance",
            "inputs": [
                {
                    "name": "campaignId",
                    "type": "bytes32",
                    "internalType": "bytes32"
                },
                {
                    "name": "requested",
                    "type": "uint256",
                    "internalType": "uint256"
                },
                {
                    "name": "available",
                    "type": "uint256",
                    "internalType": "uint256"
                }
            ]
        },
        {
            "type": "error",
            "name": "CampaignEscrow__InvalidReleaser",
            "inputs": []
        },
        {
            "type": "error",
            "name": "CampaignEscrow__OnlyRewardReleaser",
            "inputs": []
        },
        {
            "type": "error",
            "name": "CampaignEscrow__TokenNotConfigured",
            "inputs": []
        },
        {
            "type": "error",
            "name": "CampaignEscrow__ZeroAmount",
            "inputs": []
        },
        {
            "type": "error",
            "name": "OwnableInvalidOwner",
            "inputs": [
                {
                    "name": "owner",
                    "type": "address",
                    "internalType": "address"
                }
            ]
        },
        {
            "type": "error",
            "name": "OwnableUnauthorizedAccount",
            "inputs": [
                {
                    "name": "account",
                    "type": "address",
                    "internalType": "address"
                }
            ]
        },
        {
            "type": "error",
            "name": "SafeERC20FailedOperation",
            "inputs": [
                {
                    "name": "token",
                    "type": "address",
                    "internalType": "address"
                }
            ]
        }
    ],
    "bytecode": {
        "object": "0x60803460b857601f61079e38819003918201601f19168301916001600160401b0383118484101760bc5780849260209460405283398101031260b857516001600160a01b0381169081900360b857801560a5575f80546001600160a01b031981168317825560405192916001600160a01b03909116907f8be0079c531659141344cd1fd0a4f28419497f9722a3daafe3b4186f6b6457e09080a36106cd90816100d18239f35b631e4fbdf760e01b5f525f60045260245ffd5b5f80fd5b634e487b7160e01b5f52604160045260245ffdfe6080806040526004361015610012575f80fd5b5f3560e01c9081630372da8e14610519575080631de26e161461044857806320bb7504146102dd5780632345a1d914610266578063715018a61461020f5780638aee81271461018c5780638da5cb5b14610165578063c78319721461013b578063f2fde38b146100b65763f7c618c11461008a575f80fd5b346100b2575f3660031901126100b2576002546040516001600160a01b039091168152602090f35b5f80fd5b346100b25760203660031901126100b2576100cf61053c565b6100d7610552565b6001600160a01b03168015610128575f80546001600160a01b03198116831782556001600160a01b0316907f8be0079c531659141344cd1fd0a4f28419497f9722a3daafe3b4186f6b6457e09080a3005b631e4fbdf760e01b5f525f60045260245ffd5b346100b25760203660031901126100b2576004355f526003602052602060405f2054604051908152f35b346100b2575f3660031901126100b2575f546040516001600160a01b039091168152602090f35b346100b25760203660031901126100b2576101a561053c565b6101ad610552565b6001600160a01b03811690811561020057600280546001600160a01b031916831790556101fe917fa5289ba11778999f4dfb9415023783188d42bbb5db0612cbfbe55999069612a05f80a2306105ae565b005b630bc5794560e21b5f5260045ffd5b346100b2575f3660031901126100b257610227610552565b5f80546001600160a01b0319811682556001600160a01b03167f8be0079c531659141344cd1fd0a4f28419497f9722a3daafe3b4186f6b6457e08280a3005b346100b25760203660031901126100b25761027f61053c565b610287610552565b6001600160a01b031680156102ce57600180546001600160a01b031916821790557fce2efe89001b12d3e95c1ebeb5b725abb14a27489ee9dd9947b136fa55376c7a5f80a2005b632aa4bc8160e21b5f5260045ffd5b346100b25760603660031901126100b2576024356001600160a01b03811690600435908290036100b257600154604435906001600160a01b03163303610439576002546001600160a01b03161561020057801561042a57815f52600360205260405f2054808211610411578181039081116103fd57825f52600360205260405f205560018060a01b0360025416906040519163a9059cbb60e01b5f52846004528160245260205f60448180855af160015f51148116156103de575b83604052156103cc5750816020917fc8fa66dff4b9073528c3f1bf21a8dc9a18fdf09847e88e96188bc953aef519f09352a3005b635274afe760e01b5f5260045260245ffd5b60018115166103f457813b15153d151616610398565b833d5f823e3d90fd5b634e487b7160e01b5f52601160045260245ffd5b9163ddabf0f760e01b5f5260045260245260445260645ffd5b634ebaaac560e11b5f5260045ffd5b6338fb192360e01b5f5260045ffd5b346100b25760403660031901126100b2576002546001600160a01b0316600435602435821561020057801561042a57604051926323b872dd60e01b5f5233600452306024528160445260205f60648180855af160015f51148116156104fa575b846040525f606052156103cc5750815f52600360205260405f208054908282018092116103fd575582527f87d4c0b5e30d6808bc8a94ba1c4d839b29d664151551a31753387ee9ef48429b60203393a3005b600181151661051057813b15153d1516166104a8565b843d5f823e3d90fd5b346100b2575f3660031901126100b2576001546001600160a01b03168152602090f35b600435906001600160a01b03821682036100b257565b5f546001600160a01b0316330361056557565b63118cdaa760e01b5f523360045260245ffd5b90601f8019910116810190811067ffffffffffffffff82111761059a57604052565b634e487b7160e01b5f52604160045260245ffd5b60405163248a35ef60e11b602082019081526001600160a01b0392831660248301529290911660448083019190915281525f9182916105ee606482610578565b5190826101675af13d1561068f573d9067ffffffffffffffff821161059a5760405191610625601f8201601f191660200184610578565b82523d5f602084013e5b1561068c578051602081106106885781602091810103126100b257602001518060030b8091036100b25760168114158061067d575b61066b5750565b6305303aa160e31b5f5260045260245ffd5b5060c2811415610664565b5050565b50565b60609061062f56fea2646970667358221220260697184612356e66e5c7ff9b5e5cf54c376afcfcfa7e7f8501df8a3feb1ed064736f6c634300081e0033",
        "linkReferences": {}
    },
    "methodIdentifiers": {
        "campaignBalance(bytes32)": "c7831972",
        "deposit(bytes32,uint256)": "1de26e16",
        "owner()": "8da5cb5b",
        "releaseReward(bytes32,address,uint256)": "20bb7504",
        "renounceOwnership()": "715018a6",
        "rewardReleaser()": "0372da8e",
        "rewardToken()": "f7c618c1",
        "setRewardReleaser(address)": "2345a1d9",
        "setRewardToken(address)": "8aee8127",
        "transferOwnership(address)": "f2fde38b"
    },
    "id": 54
}