{"abi":[{"type":"constructor","inputs":[{"name":"owner_","type":"address","internalType":"address"}],"stateMutability":"nonpayable"},{"type":"function","name":"MAX_FEE_BPS","inputs":[],"outputs":[{"name":"","type":"uint256","internalType":"uint256"}],"stateMutability":"view"},{"type":"function","name":"campaignBalance","inputs":[{"name":"campaignId","type":"bytes32","internalType":"bytes32"}],"outputs":[{"name":"","type":"uint256","internalType":"uint256"}],"stateMutability":"view"},{"type":"function","name":"deposit","inputs":[{"name":"campaignId","type":"bytes32","internalType":"bytes32"},{"name":"amount","type":"uint256","internalType":"uint256"}],"outputs":[],"stateMutability":"nonpayable"},{"type":"function","name":"feeBps","inputs":[],"outputs":[{"name":"","type":"uint256","internalType":"uint256"}],"stateMutability":"view"},{"type":"function","name":"feeCollector","inputs":[],"outputs":[{"name":"","type":"address","internalType":"address"}],"stateMutability":"view"},{"type":"function","name":"getDepositAmountForPool","inputs":[{"name":"poolAmount","type":"uint256","internalType":"uint256"}],"outputs":[{"name":"","type":"uint256","internalType":"uint256"}],"stateMutability":"view"},{"type":"function","name":"getFeeAndPoolAmount","inputs":[{"name":"depositAmount","type":"uint256","internalType":"uint256"}],"outputs":[{"name":"feeAmount","type":"uint256","internalType":"uint256"},{"name":"poolAmount","type":"uint256","internalType":"uint256"}],"stateMutability":"view"},{"type":"function","name":"owner","inputs":[],"outputs":[{"name":"","type":"address","internalType":"address"}],"stateMutability":"view"},{"type":"function","name":"refundToPartner","inputs":[{"name":"campaignId","type":"bytes32","internalType":"bytes32"},{"name":"recipient","type":"address","internalType":"address"},{"name":"amount","type":"uint256","internalType":"uint256"}],"outputs":[],"stateMutability":"nonpayable"},{"type":"function","name":"releaseReward","inputs":[{"name":"campaignId","type":"bytes32","internalType":"bytes32"},{"name":"recipient","type":"address","internalType":"address"},{"name":"amount","type":"uint256","internalType":"uint256"}],"outputs":[],"stateMutability":"nonpayable"},{"type":"function","name":"renounceOwnership","inputs":[],"outputs":[],"stateMutability":"nonpayable"},{"type":"function","name":"rewardReleaser","inputs":[],"outputs":[{"name":"","type":"address","internalType":"address"}],"stateMutability":"view"},{"type":"function","name":"rewardToken","inputs":[],"outputs":[{"name":"","type":"address","internalType":"contract IERC20"}],"stateMutability":"view"},{"type":"function","name":"setFeeBps","inputs":[{"name":"bps","type":"uint256","internalType":"uint256"}],"outputs":[],"stateMutability":"nonpayable"},{"type":"function","name":"setFeeCollector","inputs":[{"name":"collector","type":"address","internalType":"address"}],"outputs":[],"stateMutability":"nonpayable"},{"type":"function","name":"setRewardReleaser","inputs":[{"name":"releaser_","type":"address","internalType":"address"}],"outputs":[],"stateMutability":"nonpayable"},{"type":"function","name":"setRewardToken","inputs":[{"name":"tokenAddress","type":"address","internalType":"address"}],"outputs":[],"stateMutability":"nonpayable"},{"type":"function","name":"transferOwnership","inputs":[{"name":"newOwner","type":"address","internalType":"address"}],"outputs":[],"stateMutability":"nonpayable"},{"type":"event","name":"Deposited","inputs":[{"name":"campaignId","type":"bytes32","indexed":true,"internalType":"bytes32"},{"name":"depositor","type":"address","indexed":true,"internalType":"address"},{"name":"amount","type":"uint256","indexed":false,"internalType":"uint256"},{"name":"feeAmount","type":"uint256","indexed":false,"internalType":"uint256"}],"anonymous":false},{"type":"event","name":"FeeCollectorUpdated","inputs":[{"name":"newCollector","type":"address","indexed":true,"internalType":"address"}],"anonymous":false},{"type":"event","name":"FeeUpdated","inputs":[{"name":"newFeeBps","type":"uint256","indexed":false,"internalType":"uint256"}],"anonymous":false},{"type":"event","name":"OwnershipTransferred","inputs":[{"name":"previousOwner","type":"address","indexed":true,"internalType":"address"},{"name":"newOwner","type":"address","indexed":true,"internalType":"address"}],"anonymous":false},{"type":"event","name":"Refunded","inputs":[{"name":"campaignId","type":"bytes32","indexed":true,"internalType":"bytes32"},{"name":"recipient","type":"address","indexed":true,"internalType":"address"},{"name":"amount","type":"uint256","indexed":false,"internalType":"uint256"}],"anonymous":false},{"type":"event","name":"Released","inputs":[{"name":"campaignId","type":"bytes32","indexed":true,"internalType":"bytes32"},{"name":"recipient","type":"address","indexed":true,"internalType":"address"},{"name":"amount","type":"uint256","indexed":false,"internalType":"uint256"}],"anonymous":false},{"type":"event","name":"RewardReleaserUpdated","inputs":[{"name":"newReleaser","type":"address","indexed":true,"internalType":"address"}],"anonymous":false},{"type":"event","name":"RewardTokenUpdated","inputs":[{"name":"newToken","type":"address","indexed":true,"internalType":"address"}],"anonymous":false},{"type":"error","name":"CampaignEscrow__FeeBpsTooHigh","inputs":[]},{"type":"error","name":"CampaignEscrow__HtsAssociationFailed","inputs":[{"name":"responseCode","type":"int32","internalType":"int32"}]},{"type":"error","name":"CampaignEscrow__InsufficientBalance","inputs":[{"name":"campaignId","type":"bytes32","internalType":"bytes32"},{"name":"requested","type":"uint256","internalType":"uint256"},{"name":"available","type":"uint256","internalType":"uint256"}]},{"type":"error","name":"CampaignEscrow__InvalidFeeCollector","inputs":[]},{"type":"error","name":"CampaignEscrow__InvalidReleaser","inputs":[]},{"type":"error","name":"CampaignEscrow__OnlyRewardReleaser","inputs":[]},{"type":"error","name":"CampaignEscrow__TokenNotConfigured","inputs":[]},{"type":"error","name":"CampaignEscrow__ZeroAmount","inputs":[]},{"type":"error","name":"OwnableInvalidOwner","inputs":[{"name":"owner","type":"address","internalType":"address"}]},{"type":"error","name":"OwnableUnauthorizedAccount","inputs":[{"name":"account","type":"address","internalType":"address"}]},{"type":"error","name":"SafeERC20FailedOperation","inputs":[{"name":"token","type":"address","internalType":"address"}]}],"bytecode":{"object":"0x60803460d157601f610b3b38819003918201601f19168301916001600160401b0383118484101760d55780849260209460405283398101031260d157516001600160a01b0381169081900360d157801560be575f80546001600160a01b0319811683178255604051929182916001600160a01b0316907f8be0079c531659141344cd1fd0a4f28419497f9722a3daafe3b4186f6b6457e09080a36032600355600480546001600160a01b031916919091179055610a5190816100ea8239f35b631e4fbdf760e01b5f525f60045260245ffd5b5f80fd5b634e487b7160e01b5f52604160045260245ffdfe6080806040526004361015610012575f80fd5b5f3560e01c9081630372da8e146107db575080631677f26e146107785780631de26e161461061557806320bb7504146105975780632345a1d91461052057806324a9d853146105035780636f533bb9146104c7578063715018a61461047057806372c27b621461040b5780638aee8127146103975780638da5cb5b14610370578063a42dce80146102f9578063c415b95c146102d1578063c7831972146102a7578063d55be8c61461028b578063ecb9b01814610193578063f2fde38b1461010e5763f7c618c1146100e2575f80fd5b3461010a575f36600319011261010a576002546040516001600160a01b039091168152602090f35b5f80fd5b3461010a57602036600319011261010a576101276107fe565b61012f6108d6565b6001600160a01b03168015610180575f80546001600160a01b03198116831782556001600160a01b0316907f8be0079c531659141344cd1fd0a4f28419497f9722a3daafe3b4186f6b6457e09080a3005b631e4fbdf760e01b5f525f60045260245ffd5b3461010a576101a136610814565b600154919290916001600160a01b0316330361027c576002546001600160a01b03161561026d57811561025e57805f52600560205260405f2054928383116102455760207ff552ca82e113ac3c539c3d617f29fcd19c172a0c75dad017555c9e109f7fe183916102118587610851565b845f526005835260405f2055610232858260018060a01b036002541661085e565b6040519485526001600160a01b031693a3005b5063ddabf0f760e01b5f5260045260245260445260645ffd5b634ebaaac560e11b5f5260045ffd5b630bc5794560e21b5f5260045ffd5b6338fb192360e01b5f5260045ffd5b3461010a575f36600319011261010a5760206040516103e88152f35b3461010a57602036600319011261010a576004355f526005602052602060405f2054604051908152f35b3461010a575f36600319011261010a576004546040516001600160a01b039091168152602090f35b3461010a57602036600319011261010a576103126107fe565b61031a6108d6565b6001600160a01b0316801561036157600480546001600160a01b031916821790557fe5693914d19c789bdee50a362998c0bc8d035a835f9871da5d51152f0582c34f5f80a2005b63069dc53160e51b5f5260045ffd5b3461010a575f36600319011261010a575f546040516001600160a01b039091168152602090f35b3461010a57602036600319011261010a576103b06107fe565b6103b86108d6565b6001600160a01b03811690811561026d57600280546001600160a01b03191683179055610409917fa5289ba11778999f4dfb9415023783188d42bbb5db0612cbfbe55999069612a05f80a230610932565b005b3461010a57602036600319011261010a576004356104276108d6565b6103e88111610461576020817f8c4d35e54a3f2ef1134138fd8ea3daee6a3c89e10d2665996babdf70261e2c7692600355604051908152a1005b6391ff17d760e01b5f5260045ffd5b3461010a575f36600319011261010a576104886108d6565b5f80546001600160a01b0319811682556001600160a01b03167f8be0079c531659141344cd1fd0a4f28419497f9722a3daafe3b4186f6b6457e08280a3005b3461010a57602036600319011261010a5760406004356104f76127106104ef6003548461083e565b048092610851565b82519182526020820152f35b3461010a575f36600319011261010a576020600354604051908152f35b3461010a57602036600319011261010a576105396107fe565b6105416108d6565b6001600160a01b0316801561058857600180546001600160a01b031916821790557fce2efe89001b12d3e95c1ebeb5b725abb14a27489ee9dd9947b136fa55376c7a5f80a2005b632aa4bc8160e21b5f5260045ffd5b3461010a576105a536610814565b600154919290916001600160a01b0316330361027c576002546001600160a01b03161561026d57811561025e57805f52600560205260405f2054928383116102455760207fc8fa66dff4b9073528c3f1bf21a8dc9a18fdf09847e88e96188bc953aef519f0916102118587610851565b3461010a57604036600319011261010a5760025460243590600435906001600160a01b0316801561026d57821561025e576040516323b872dd60e01b5f5233600452306024528360445260205f60648180865af19060015f5114821615610757575b6040525f60605215610745575061069e6127106106966003548561083e565b048093610851565b91815f52600560205260405f2080549084820180921161073157558015158061071d575b6106fa575b60405192835260208301527f2dcdaad87b561ba5a69835009b4c53ef9d3c41ca6cc9574049187659d6c6a71560403393a3005b6002546004546107189183916001600160a01b03908116911661085e565b6106c7565b506004546001600160a01b031615156106c2565b634e487b7160e01b5f52601160045260245ffd5b635274afe760e01b5f5260045260245ffd5b90600181151661076f57823b15153d15161690610677565b503d5f823e3d90fd5b3461010a57602036600319011261010a57600435612710810290808204612710149015171561073157600354806127100390612710821161073157612710146107c75760209104604051908152f35b634e487b7160e01b5f52601260045260245ffd5b3461010a575f36600319011261010a576001546001600160a01b03168152602090f35b600435906001600160a01b038216820361010a57565b606090600319011261010a57600435906024356001600160a01b038116810361010a579060443590565b8181029291811591840414171561073157565b9190820391821161073157565b916040519163a9059cbb60e01b5f5260018060a01b031660045260245260205f60448180865af19060015f51148216156108be575b6040521561089e5750565b635274afe760e01b5f9081526001600160a01b0391909116600452602490fd5b90600181151661076f57823b15153d15161690610893565b5f546001600160a01b031633036108e957565b63118cdaa760e01b5f523360045260245ffd5b90601f8019910116810190811067ffffffffffffffff82111761091e57604052565b634e487b7160e01b5f52604160045260245ffd5b60405163248a35ef60e11b602082019081526001600160a01b0392831660248301529290911660448083019190915281525f9182916109726064826108fc565b5190826101675af13d15610a13573d9067ffffffffffffffff821161091e57604051916109a9601f8201601f1916602001846108fc565b82523d5f602084013e5b15610a1057805160208110610a0c57816020918101031261010a57602001518060030b80910361010a57601681141580610a01575b6109ef5750565b6305303aa160e31b5f5260045260245ffd5b5060c28114156109e8565b5050565b50565b6060906109b356fea2646970667358221220dc88d2d5c538b0397b1ce99369d2033439dfa00149a089d1c266598d35943cd564736f6c634300081e0033","linkReferences":{}},"methodIdentifiers":{"MAX_FEE_BPS()":"d55be8c6","campaignBalance(bytes32)":"c7831972","deposit(bytes32,uint256)":"1de26e16","feeBps()":"24a9d853","feeCollector()":"c415b95c","getDepositAmountForPool(uint256)":"1677f26e","getFeeAndPoolAmount(uint256)":"6f533bb9","owner()":"8da5cb5b","refundToPartner(bytes32,address,uint256)":"ecb9b018","releaseReward(bytes32,address,uint256)":"20bb7504","renounceOwnership()":"715018a6","rewardReleaser()":"0372da8e","rewardToken()":"f7c618c1","setFeeBps(uint256)":"72c27b62","setFeeCollector(address)":"a42dce80","setRewardReleaser(address)":"2345a1d9","setRewardToken(address)":"8aee8127","transferOwnership(address)":"f2fde38b"},"id":24}