{"abi":[{"type":"constructor","inputs":[{"name":"owner_","type":"address","internalType":"address"},{"name":"agentRegistry","type":"address","internalType":"contract AgentRegistryAdapter"},{"name":"rewardVault","type":"address","internalType":"contract RewardVault"},{"name":"badgeNft","type":"address","internalType":"contract BadgeNFT"},{"name":"reputationRegistry","type":"address","internalType":"contract ReputationRegistry"},{"name":"validationRegistry","type":"address","internalType":"contract ValidationRegistry"}],"stateMutability":"nonpayable"},{"type":"function","name":"AGENT_REGISTRY","inputs":[],"outputs":[{"name":"","type":"address","internalType":"contract AgentRegistryAdapter"}],"stateMutability":"view"},{"type":"function","name":"BADGE_NFT","inputs":[],"outputs":[{"name":"","type":"address","internalType":"contract BadgeNFT"}],"stateMutability":"view"},{"type":"function","name":"REPUTATION_REGISTRY","inputs":[],"outputs":[{"name":"","type":"address","internalType":"contract ReputationRegistry"}],"stateMutability":"view"},{"type":"function","name":"REWARD_VAULT","inputs":[],"outputs":[{"name":"","type":"address","internalType":"contract RewardVault"}],"stateMutability":"view"},{"type":"function","name":"VALIDATION_REGISTRY","inputs":[],"outputs":[{"name":"","type":"address","internalType":"contract ValidationRegistry"}],"stateMutability":"view"},{"type":"function","name":"acceptQuest","inputs":[{"name":"questId","type":"uint256","internalType":"uint256"}],"outputs":[],"stateMutability":"nonpayable"},{"type":"function","name":"cancelQuest","inputs":[{"name":"questId","type":"uint256","internalType":"uint256"}],"outputs":[],"stateMutability":"nonpayable"},{"type":"function","name":"createQuest","inputs":[{"name":"params","type":"tuple","internalType":"struct QuestManager.CreateQuestParams","components":[{"name":"category","type":"uint8","internalType":"enum QuestManager.QuestCategory"},{"name":"protocol","type":"address","internalType":"address"},{"name":"parametersHash","type":"bytes32","internalType":"bytes32"},{"name":"metadataURI","type":"string","internalType":"string"},{"name":"rewardPerParticipant","type":"uint256","internalType":"uint256"},{"name":"expiry","type":"uint64","internalType":"uint64"},{"name":"badgeLevel","type":"uint256","internalType":"uint256"},{"name":"participant","type":"address","internalType":"address"}]}],"outputs":[{"name":"questId","type":"uint256","internalType":"uint256"}],"stateMutability":"nonpayable"},{"type":"function","name":"getQuest","inputs":[{"name":"questId","type":"uint256","internalType":"uint256"}],"outputs":[{"name":"","type":"tuple","internalType":"struct QuestManager.Quest","components":[{"name":"agentId","type":"uint256","internalType":"uint256"},{"name":"agentController","type":"address","internalType":"address"},{"name":"category","type":"uint8","internalType":"enum QuestManager.QuestCategory"},{"name":"protocol","type":"address","internalType":"address"},{"name":"parametersHash","type":"bytes32","internalType":"bytes32"},{"name":"metadataURI","type":"string","internalType":"string"},{"name":"rewardToken","type":"address","internalType":"address"},{"name":"rewardPerParticipant","type":"uint256","internalType":"uint256"},{"name":"badgeLevel","type":"uint256","internalType":"uint256"},{"name":"assignedParticipant","type":"address","internalType":"address"},{"name":"acceptedCount","type":"uint32","internalType":"uint32"},{"name":"completedCount","type":"uint32","internalType":"uint32"},{"name":"expiry","type":"uint64","internalType":"uint64"},{"name":"status","type":"uint8","internalType":"enum QuestManager.QuestStatus"},{"name":"createdAt","type":"uint64","internalType":"uint64"}]}],"stateMutability":"view"},{"type":"function","name":"isCompletionOracle","inputs":[{"name":"oracle","type":"address","internalType":"address"}],"outputs":[{"name":"","type":"bool","internalType":"bool"}],"stateMutability":"view"},{"type":"function","name":"owner","inputs":[],"outputs":[{"name":"","type":"address","internalType":"address"}],"stateMutability":"view"},{"type":"function","name":"participantProgress","inputs":[{"name":"questId","type":"uint256","internalType":"uint256"},{"name":"participant","type":"address","internalType":"address"}],"outputs":[{"name":"","type":"tuple","internalType":"struct QuestManager.ParticipantProgress","components":[{"name":"accepted","type":"bool","internalType":"bool"},{"name":"completed","type":"bool","internalType":"bool"}]}],"stateMutability":"view"},{"type":"function","name":"recordCompletion","inputs":[{"name":"questId","type":"uint256","internalType":"uint256"},{"name":"participant","type":"address","internalType":"address"},{"name":"evidenceURI","type":"string","internalType":"string"}],"outputs":[],"stateMutability":"nonpayable"},{"type":"function","name":"renounceOwnership","inputs":[],"outputs":[],"stateMutability":"nonpayable"},{"type":"function","name":"setCompletionOracle","inputs":[{"name":"oracle","type":"address","internalType":"address"},{"name":"authorized","type":"bool","internalType":"bool"}],"outputs":[],"stateMutability":"nonpayable"},{"type":"function","name":"transferOwnership","inputs":[{"name":"newOwner","type":"address","internalType":"address"}],"outputs":[],"stateMutability":"nonpayable"},{"type":"event","name":"CompletionOracleUpdated","inputs":[{"name":"oracle","type":"address","indexed":true,"internalType":"address"},{"name":"authorized","type":"bool","indexed":false,"internalType":"bool"}],"anonymous":false},{"type":"event","name":"OwnershipTransferred","inputs":[{"name":"previousOwner","type":"address","indexed":true,"internalType":"address"},{"name":"newOwner","type":"address","indexed":true,"internalType":"address"}],"anonymous":false},{"type":"event","name":"QuestAccepted","inputs":[{"name":"questId","type":"uint256","indexed":true,"internalType":"uint256"},{"name":"participant","type":"address","indexed":true,"internalType":"address"}],"anonymous":false},{"type":"event","name":"QuestCancelled","inputs":[{"name":"questId","type":"uint256","indexed":true,"internalType":"uint256"}],"anonymous":false},{"type":"event","name":"QuestCompleted","inputs":[{"name":"questId","type":"uint256","indexed":true,"internalType":"uint256"},{"name":"participant","type":"address","indexed":true,"internalType":"address"},{"name":"evidenceURI","type":"string","indexed":false,"internalType":"string"}],"anonymous":false},{"type":"event","name":"QuestCreated","inputs":[{"name":"questId","type":"uint256","indexed":true,"internalType":"uint256"},{"name":"agentId","type":"uint256","indexed":true,"internalType":"uint256"},{"name":"agentController","type":"address","indexed":true,"internalType":"address"},{"name":"category","type":"uint8","indexed":false,"internalType":"enum QuestManager.QuestCategory"},{"name":"protocol","type":"address","indexed":false,"internalType":"address"}],"anonymous":false},{"type":"error","name":"OwnableInvalidOwner","inputs":[{"name":"owner","type":"address","internalType":"address"}]},{"type":"error","name":"OwnableUnauthorizedAccount","inputs":[{"name":"account","type":"address","internalType":"address"}]},{"type":"error","name":"QuestManager__AlreadyAccepted","inputs":[{"name":"questId","type":"uint256","internalType":"uint256"},{"name":"participant","type":"address","internalType":"address"}]},{"type":"error","name":"QuestManager__AlreadyCompleted","inputs":[{"name":"questId","type":"uint256","internalType":"uint256"},{"name":"participant","type":"address","internalType":"address"}]},{"type":"error","name":"QuestManager__OnlyAgentController","inputs":[{"name":"questId","type":"uint256","internalType":"uint256"},{"name":"caller","type":"address","internalType":"address"}]},{"type":"error","name":"QuestManager__ParticipantNotAccepted","inputs":[{"name":"questId","type":"uint256","internalType":"uint256"},{"name":"participant","type":"address","internalType":"address"}]},{"type":"error","name":"QuestManager__QuestExpired","inputs":[{"name":"questId","type":"uint256","internalType":"uint256"}]},{"type":"error","name":"QuestManager__QuestNotActive","inputs":[{"name":"questId","type":"uint256","internalType":"uint256"}]},{"type":"error","name":"QuestManager__QuestNotFound","inputs":[{"name":"questId","type":"uint256","internalType":"uint256"}]},{"type":"error","name":"QuestManager__UnauthorizedOracle","inputs":[{"name":"caller","type":"address","internalType":"address"}]},{"type":"error","name":"QuestManager__UnauthorizedParticipant","inputs":[{"name":"questId","type":"uint256","internalType":"uint256"},{"name":"participant","type":"address","internalType":"address"}]}],"bytecode":{"object":"0x6101203461019f57601f611a7b38819003918201601f19168301916001600160401b038311848410176101a35780849260c09460405283398101031261019f5780516001600160a01b038116919082900361019f576020810151906001600160a01b038216820361019f5760408101516001600160a01b038116810361019f576060820151906001600160a01b038216820361019f576080830151926001600160a01b038416840361019f5760a00151936001600160a01b038516850361019f57851561018c575f80546001600160a01b031981168817825560405197916001600160a01b03909116907f8be0079c531659141344cd1fd0a4f28419497f9722a3daafe3b4186f6b6457e09080a36001805560805260a05260c05260e052610100526118c390816101b8823960805181818161040f0152610b21015260a0518181816104a9015281816107090152818161075e01528181610ef50152611201015260c0518181816101470152611293015260e051818181610102015261132101526101005181610eb00152f35b631e4fbdf760e01b5f525f60045260245ffd5b5f80fd5b634e487b7160e01b5f52604160045260245ffdfe60806040526004361015610011575f80fd5b5f5f3560e01c806312977800146110a0578063139f399a14610f2457806327f9387f14610edf5780633652d20914610e9a57806349f86f3414610b505780635af586ca14610b0b5780635c52081a146103c0578063715018a6146103665780638da5cb5b1461033f5780639ecd577d146102be578063dbc877991461027f578063df0a6e44146101fc578063f2fde38b14610176578063f776220914610131578063f8ff0c92146100ec5763fe90ff7d146100ca575f80fd5b346100e95760203660031901126100e9576100e660043561169e565b80f35b80fd5b50346100e957806003193601126100e9576040517f00000000000000000000000000000000000000000000000000000000000000006001600160a01b03168152602090f35b50346100e957806003193601126100e9576040517f00000000000000000000000000000000000000000000000000000000000000006001600160a01b03168152602090f35b50346100e95760203660031901126100e95761019061152e565b610198611867565b6001600160a01b031680156101e85781546001600160a01b03198116821783556001600160a01b03167f8be0079c531659141344cd1fd0a4f28419497f9722a3daafe3b4186f6b6457e08380a380f35b631e4fbdf760e01b82526004829052602482fd5b50346100e95760403660031901126100e95761021661152e565b6024359081151580920361027b5760207fe1cc2f79795accf8613e535171309d9d4f70217200ea99871a5309fc4829048791610250611867565b6001600160a01b0316808552600482526040808620805460ff191660ff87161790555193845292a280f35b8280fd5b50346100e95760203660031901126100e95760209060ff906040906001600160a01b036102aa61152e565b168152600484522054166040519015158152f35b50346100e95760403660031901126100e95760406102da611518565b9180602083516102e9816115e2565b828152015260043581526003602052209060018060a01b03165f526020526040805f20815190610318826115e2565b5460ff6020818316151593848152019160081c161515815282519182525115156020820152f35b50346100e957806003193601126100e957546040516001600160a01b039091168152602090f35b50346100e957806003193601126100e95761037f611867565b80546001600160a01b03198116825581906001600160a01b03167f8be0079c531659141344cd1fd0a4f28419497f9722a3daafe3b4186f6b6457e08280a380f35b50346100e95760203660031901126100e9576001600160401b03600435116100e9576004353603610100600319820112610b075760405163baa04c7560e01b81523360048201526020816024817f00000000000000000000000000000000000000000000000000000000000000006001600160a01b03165afa908115610afc578391610ac6575b506084600435013515610a81576001600160a01b0361046a60043560e401611676565b1615610a32576001600160401b0361048660a46004350161168a565b16151580610a11575b6109cc5760405163709a795b60e01b8152916020836004817f00000000000000000000000000000000000000000000000000000000000000006001600160a01b03165afa928315610816578493610984575b506001600160a01b0383161561092e57600154926001840180851161091a57600190815584865260026020526040862084815590810180546001600160a01b031916331781559092906004803581013510156109165761054660043560040135611544565b805460ff60a01b1916600480359081013560a01b60ff60a01b169190911790915561057390602401611676565b6002840180546001600160a01b0319166001600160a01b0390921691909117905560043560448101356003850155606401359060221901811215610912576001600160401b036004828135010135116109125760048181350101353603602482600435010113610912576105ea600484015461163e565b601f81116108c7575b5085601f6004838135010135116001146108335786906004838135010135610821575b50600482813501013560011b9160045f1991813501013560031b1c19161760048301555b6005820180546001600160a01b0319166001600160a01b039092169190911790556004356084810135600683015560c4810135600783015561067e9060e401611676565b6008820180546001600160a01b0319166001600160a01b0390921691909117905560096106af60043560a40161168a565b9101805468ffffffffffffffffff19166001600160401b0390921691909117680100000000000000001770ffffffffffffffff00000000000000000019164260481b70ffffffffffffffff000000000000000000161790557f00000000000000000000000000000000000000000000000000000000000000006001600160a01b03163b1561027b5760405163c419403160e01b81526004808201849052356084013560248201528381604481837f00000000000000000000000000000000000000000000000000000000000000006001600160a01b03165af1801561081657610801575b50602092506107a6602460043501611676565b90604051916107ba60043560040135611544565b60048035013583526001600160a01b031684830152339183907f4d57cbabc4442a922bd00cd9454eb2d03a211f165a3a86369c309454a6df73fd90604090a4604051908152f35b61080c8480926115fd565b61027b575f610793565b6040513d86823e3d90fd5b6004358301016024013590505f610616565b6004840187526020872090875b6004803585010135601f191681106108a85750600192600492909183358301840135601f19811610610881575b50508135010135811b01600483015561063a565b6020845f1960f88287813501013560031b161c199285823501010101351690555f8061086d565b6024600435850183010135835560019092019160209182019101610840565b60048481018852602080892091803585010135601f810160051c8301911161090b575b601f830160051c820181106109005750506105f3565b8881556001016108ea565b50806108ea565b8580fd5b8680fd5b634e487b7160e01b86526011600452602486fd5b60405162461bcd60e51b815260206004820152602860248201527f51756573744d616e616765723a20726577617264207661756c7420756e696e696044820152671d1a585b1a5e995960c21b6064820152608490fd5b9092506020813d6020116109c4575b816109a0602093836115fd565b810103126109c057516001600160a01b03811681036109c057915f6104e1565b8380fd5b3d9150610993565b60405162461bcd60e51b815260206004820152601c60248201527f51756573744d616e616765723a20696e76616c696420657870697279000000006044820152606490fd5b50610a2060a46004350161168a565b6001600160401b03429116111561048f565b60405162461bcd60e51b815260206004820152602160248201527f51756573744d616e616765723a207061727469636970616e74206d697373696e6044820152606760f81b6064820152608490fd5b60405162461bcd60e51b815260206004820152601960248201527f51756573744d616e616765723a207a65726f20726577617264000000000000006044820152606490fd5b90506020813d602011610af4575b81610ae1602093836115fd565b81010312610af057515f610447565b5f80fd5b3d9150610ad4565b6040513d85823e3d90fd5b5080fd5b50346100e957806003193601126100e9576040517f00000000000000000000000000000000000000000000000000000000000000006001600160a01b03168152602090f35b50346100e95760203660031901126100e95760ff600435826101c0604051610b77816115b2565b828152826020820152826040820152826060820152826080820152606060a08201528260c08201528260e08201528261010082015282610120820152826101408201528261016082015282610180820152826101a082015201528083526002602052604083209060405193610beb856115b2565b82548552846001840154916020820195869360018060a01b038116855260a01c16946040830195610c1b81611544565b865260018060a01b0360028201541694606084019586526003820154966080850197885260048301966040518598805490610c558261163e565b8084529160018116908115610e775750600114610e35575b50508087989903610c7e90826115fd565b60a08701908152600160a01b600190036005860154169960c088019a8b5260068601549260e089019384526007870154946101008a019586526008880154986101208b0197600160a01b600190038b1689526101408c01998b60a01c63ffffffff168b526101608d019b60c01c63ffffffff168c52600901549d6101808f9d019c8d6001600160401b038216905260401c60ff169d6101a081019e8f610d2382611544565b526101c0019e8f9060481c6001600160401b03169052600160a01b6001900390511615610e225750506040519e8f9e8f9160208352516020830152600160a01b600190039051169060400152518d610d7a82611544565b60600152516001600160a01b031660808d01525160a08c0152516101e060c08c0152610dab906102008c0190611562565b98516001600160a01b0390811660e08c015290516101008b015290516101208a01529051166101408801525163ffffffff908116610160880152905116610180860152516001600160401b03166101a085015251610e0881611544565b6101c0840152516001600160401b03166101e08301520390f35b63c831523d60e01b825260045260249150fd5b87526020872096995089965b818b10610e58575050978801602001978087610c6d565b805460208c8501810191909152909a01998c99508d9850600101610e41565b8a9b9c50602092508493915060ff191682840152151560051b8201019998610c6d565b50346100e957806003193601126100e9576040517f00000000000000000000000000000000000000000000000000000000000000006001600160a01b03168152602090f35b50346100e957806003193601126100e9576040517f00000000000000000000000000000000000000000000000000000000000000006001600160a01b03168152602090f35b50346100e95760203660031901126100e95760043580825260026020526040822060018101546001600160a01b03161561108c576009810154600160ff8260401c16610f6f81611544565b03611078576001600160401b0316801515908161106e575b5061105a5781835260036020526040832060018060a01b0333165f52602052600860405f209101903360018060a01b038354160361104257805460ff811661102a5760ff19166001179055805463ffffffff60a01b610fef60a083901c63ffffffff16611586565b60a01b169063ffffffff60a01b191617905533907f7d422f3e3149564cf96cfeab23ae433b6b1d7259c2873096244209f9b40befee8380a380f35b63c3faaebb60e01b8552600484905233602452604485fd5b63a24cbb3f60e01b8452600483905233602452604484fd5b6302dc72d160e11b83526004829052602483fd5b905042115f610f87565b630813489560e01b84526004839052602484fd5b63c831523d60e01b83526004829052602483fd5b5034610af0576060366003190112610af0576004356110bd611518565b604435916001600160401b038311610af05736602384011215610af05782600401356001600160401b038111610af05760248401936024823692010111610af057335f52600460205260ff60405f20541615611505575f82815260026020526040902060018101549094906001600160a01b0316156114f25760098501948554600160ff8260401c1661114f81611544565b036114df576001600160401b031680151590816114d5575b506114c2575f8481526003602090815260408083206001600160a01b039889168085529252909120600883018054929790921687036114ab57805460ff8116156114945760ff8160081c1661147d5761ff001916610100179055805463ffffffff60c01b6111de60c083901c63ffffffff16611586565b60c01b1663ffffffff60c01b199190911617905560068101546001600160a01b037f00000000000000000000000000000000000000000000000000000000000000001690813b15610af0575f91606483926040519485938492630632eeeb60e01b84528b60048501528c602485015260448401525af180156114725761145d575b506007810154604051627a430960e41b815260048101879052602481018690526044810191909152879190602081606481867f00000000000000000000000000000000000000000000000000000000000000006001600160a01b03165af18015610afc5761142a575b50602061131d600a60266112db8961178b565b6040519485916538bab2b9ba1d60d11b828401528051918291018484015e8101690e98dbdb5c1b195d195960b21b8382015203016015198101845201826115fd565b90547f00000000000000000000000000000000000000000000000000000000000000006001600160a01b031691823b156109c0576113a4928492836040518096819582946356e920f360e01b845260048401528c6024840152605f604484015260a0606484015261139260a484018d8d61161e565b83810360031901608485015290611562565b03925af1801561141f5761140a575b50507fb7dc5068ee145e2b404988f1ccc019f7a1b12f153253e2b27af71e172013c85e916113ee60405192839260208452602084019161161e565b0390a3805460ff60401b19166802000000000000000017905580f35b81611414916115fd565b61091257855f6113b3565b6040513d84823e3d90fd5b91506020823d602011611455575b81611445602093836115fd565b81010312610af0578791516112c8565b3d9150611438565b61146a9197505f906115fd565b5f955f61125f565b6040513d5f823e3d90fd5b8787630f27843f60e01b5f5260045260245260445ffd5b8787635cd99bc560e11b5f5260045260245260445ffd5b868663a24cbb3f60e01b5f5260045260245260445ffd5b836302dc72d160e11b5f5260045260245ffd5b905042115f611167565b84630813489560e01b5f5260045260245ffd5b8263c831523d60e01b5f5260045260245ffd5b630df4d38560e41b5f523360045260245ffd5b602435906001600160a01b0382168203610af057565b600435906001600160a01b0382168203610af057565b6004111561154e57565b634e487b7160e01b5f52602160045260245ffd5b805180835260209291819084018484015e5f828201840152601f01601f1916010190565b63ffffffff60019116019063ffffffff821161159e57565b634e487b7160e01b5f52601160045260245ffd5b6101e081019081106001600160401b038211176115ce57604052565b634e487b7160e01b5f52604160045260245ffd5b604081019081106001600160401b038211176115ce57604052565b90601f801991011681019081106001600160401b038211176115ce57604052565b908060209392818452848401375f828201840152601f01601f1916010190565b90600182811c9216801561166c575b602083101461165857565b634e487b7160e01b5f52602260045260245ffd5b91607f169161164d565b356001600160a01b0381168103610af05790565b356001600160401b0381168103610af05790565b5f81815260026020526040902060018101546001600160a01b031680156114f2573314158061175c575b61174557600901805460ff8160401c166116e181611544565b60038114908115611731575b5061172c5760ff60401b1916680300000000000000001790557f8be3723411cc8577ee6cd118cbdbcefd5a0d748b4ce31edbbbad3b8a013cc7995f80a2565b505050565b6002915061173e81611544565b145f6116ed565b506311851fed60e21b5f526004523360245260445ffd5b505f546001600160a01b03163314156116c8565b6001600160401b0381116115ce57601f01601f191660200190565b8015611847575f81805b61183057506117a381611770565b906117b160405192836115fd565b808252601f196117c082611770565b013660208401375b80928015611829575f19820191821161159e578193600a8206603001928360301161159e578451111561181557600a9260f81b6001600160f81b0319165f1a908401601f015304916117c8565b634e487b7160e01b5f52603260045260245ffd5b5050905090565b905f19811461159e576001600a9101910480611795565b506040516118566040826115fd565b60018152600360fc1b602082015290565b5f546001600160a01b0316330361187a57565b63118cdaa760e01b5f523360045260245ffdfea2646970667358221220c84fe2c1b295b178412a82c55e317de09359f5680380b73a96b65335cbc8190064736f6c634300081e0033","linkReferences":{}},"methodIdentifiers":{"AGENT_REGISTRY()":"5af586ca","BADGE_NFT()":"f7762209","REPUTATION_REGISTRY()":"f8ff0c92","REWARD_VAULT()":"27f9387f","VALIDATION_REGISTRY()":"3652d209","acceptQuest(uint256)":"139f399a","cancelQuest(uint256)":"fe90ff7d","createQuest((uint8,address,bytes32,string,uint256,uint64,uint256,address))":"5c52081a","getQuest(uint256)":"49f86f34","isCompletionOracle(address)":"dbc87799","owner()":"8da5cb5b","participantProgress(uint256,address)":"9ecd577d","recordCompletion(uint256,address,string)":"12977800","renounceOwnership()":"715018a6","setCompletionOracle(address,bool)":"df0a6e44","transferOwnership(address)":"f2fde38b"},"id":53}