{"abi":[{"type":"constructor","inputs":[{"name":"owner_","type":"address","internalType":"address"}],"stateMutability":"nonpayable"},{"type":"function","name":"approve","inputs":[{"name":"to","type":"address","internalType":"address"},{"name":"tokenId","type":"uint256","internalType":"uint256"}],"outputs":[],"stateMutability":"nonpayable"},{"type":"function","name":"badgeLevelByTokenId","inputs":[{"name":"","type":"uint256","internalType":"uint256"}],"outputs":[{"name":"","type":"uint256","internalType":"uint256"}],"stateMutability":"view"},{"type":"function","name":"badgeURI","inputs":[{"name":"badgeLevel","type":"uint256","internalType":"uint256"}],"outputs":[{"name":"","type":"string","internalType":"string"}],"stateMutability":"view"},{"type":"function","name":"balanceOf","inputs":[{"name":"owner","type":"address","internalType":"address"}],"outputs":[{"name":"","type":"uint256","internalType":"uint256"}],"stateMutability":"view"},{"type":"function","name":"getApproved","inputs":[{"name":"tokenId","type":"uint256","internalType":"uint256"}],"outputs":[{"name":"","type":"address","internalType":"address"}],"stateMutability":"view"},{"type":"function","name":"isApprovedForAll","inputs":[{"name":"owner","type":"address","internalType":"address"},{"name":"operator","type":"address","internalType":"address"}],"outputs":[{"name":"","type":"bool","internalType":"bool"}],"stateMutability":"view"},{"type":"function","name":"mintBadge","inputs":[{"name":"to","type":"address","internalType":"address"},{"name":"questId","type":"uint256","internalType":"uint256"},{"name":"badgeLevel","type":"uint256","internalType":"uint256"}],"outputs":[{"name":"","type":"uint256","internalType":"uint256"}],"stateMutability":"nonpayable"},{"type":"function","name":"name","inputs":[],"outputs":[{"name":"","type":"string","internalType":"string"}],"stateMutability":"view"},{"type":"function","name":"owner","inputs":[],"outputs":[{"name":"","type":"address","internalType":"address"}],"stateMutability":"view"},{"type":"function","name":"ownerOf","inputs":[{"name":"tokenId","type":"uint256","internalType":"uint256"}],"outputs":[{"name":"","type":"address","internalType":"address"}],"stateMutability":"view"},{"type":"function","name":"questIdByTokenId","inputs":[{"name":"","type":"uint256","internalType":"uint256"}],"outputs":[{"name":"","type":"uint256","internalType":"uint256"}],"stateMutability":"view"},{"type":"function","name":"questManager","inputs":[],"outputs":[{"name":"","type":"address","internalType":"address"}],"stateMutability":"view"},{"type":"function","name":"renounceOwnership","inputs":[],"outputs":[],"stateMutability":"nonpayable"},{"type":"function","name":"safeTransferFrom","inputs":[{"name":"from","type":"address","internalType":"address"},{"name":"to","type":"address","internalType":"address"},{"name":"tokenId","type":"uint256","internalType":"uint256"}],"outputs":[],"stateMutability":"nonpayable"},{"type":"function","name":"safeTransferFrom","inputs":[{"name":"from","type":"address","internalType":"address"},{"name":"to","type":"address","internalType":"address"},{"name":"tokenId","type":"uint256","internalType":"uint256"},{"name":"data","type":"bytes","internalType":"bytes"}],"outputs":[],"stateMutability":"nonpayable"},{"type":"function","name":"setApprovalForAll","inputs":[{"name":"operator","type":"address","internalType":"address"},{"name":"approved","type":"bool","internalType":"bool"}],"outputs":[],"stateMutability":"nonpayable"},{"type":"function","name":"setBadgeURI","inputs":[{"name":"badgeLevel","type":"uint256","internalType":"uint256"},{"name":"metadataURI","type":"string","internalType":"string"}],"outputs":[],"stateMutability":"nonpayable"},{"type":"function","name":"setQuestManager","inputs":[{"name":"questManager_","type":"address","internalType":"address"}],"outputs":[],"stateMutability":"nonpayable"},{"type":"function","name":"supportsInterface","inputs":[{"name":"interfaceId","type":"bytes4","internalType":"bytes4"}],"outputs":[{"name":"","type":"bool","internalType":"bool"}],"stateMutability":"view"},{"type":"function","name":"symbol","inputs":[],"outputs":[{"name":"","type":"string","internalType":"string"}],"stateMutability":"view"},{"type":"function","name":"tokenURI","inputs":[{"name":"tokenId","type":"uint256","internalType":"uint256"}],"outputs":[{"name":"","type":"string","internalType":"string"}],"stateMutability":"view"},{"type":"function","name":"transferFrom","inputs":[{"name":"from","type":"address","internalType":"address"},{"name":"to","type":"address","internalType":"address"},{"name":"tokenId","type":"uint256","internalType":"uint256"}],"outputs":[],"stateMutability":"nonpayable"},{"type":"function","name":"transferOwnership","inputs":[{"name":"newOwner","type":"address","internalType":"address"}],"outputs":[],"stateMutability":"nonpayable"},{"type":"event","name":"Approval","inputs":[{"name":"owner","type":"address","indexed":true,"internalType":"address"},{"name":"approved","type":"address","indexed":true,"internalType":"address"},{"name":"tokenId","type":"uint256","indexed":true,"internalType":"uint256"}],"anonymous":false},{"type":"event","name":"ApprovalForAll","inputs":[{"name":"owner","type":"address","indexed":true,"internalType":"address"},{"name":"operator","type":"address","indexed":true,"internalType":"address"},{"name":"approved","type":"bool","indexed":false,"internalType":"bool"}],"anonymous":false},{"type":"event","name":"BadgeMinted","inputs":[{"name":"to","type":"address","indexed":true,"internalType":"address"},{"name":"questId","type":"uint256","indexed":true,"internalType":"uint256"},{"name":"badgeLevel","type":"uint256","indexed":false,"internalType":"uint256"},{"name":"tokenId","type":"uint256","indexed":false,"internalType":"uint256"}],"anonymous":false},{"type":"event","name":"BatchMetadataUpdate","inputs":[{"name":"_fromTokenId","type":"uint256","indexed":false,"internalType":"uint256"},{"name":"_toTokenId","type":"uint256","indexed":false,"internalType":"uint256"}],"anonymous":false},{"type":"event","name":"MetadataUpdate","inputs":[{"name":"_tokenId","type":"uint256","indexed":false,"internalType":"uint256"}],"anonymous":false},{"type":"event","name":"OwnershipTransferred","inputs":[{"name":"previousOwner","type":"address","indexed":true,"internalType":"address"},{"name":"newOwner","type":"address","indexed":true,"internalType":"address"}],"anonymous":false},{"type":"event","name":"QuestManagerUpdated","inputs":[{"name":"questManager","type":"address","indexed":true,"internalType":"address"}],"anonymous":false},{"type":"event","name":"Transfer","inputs":[{"name":"from","type":"address","indexed":true,"internalType":"address"},{"name":"to","type":"address","indexed":true,"internalType":"address"},{"name":"tokenId","type":"uint256","indexed":true,"internalType":"uint256"}],"anonymous":false},{"type":"error","name":"BadgeNFT__InvalidBadgeLevel","inputs":[]},{"type":"error","name":"BadgeNFT__InvalidQuestManager","inputs":[]},{"type":"error","name":"BadgeNFT__MetadataMissing","inputs":[]},{"type":"error","name":"BadgeNFT__MetadataTooLarge","inputs":[]},{"type":"error","name":"BadgeNFT__OnlyQuestManager","inputs":[]},{"type":"error","name":"ERC721IncorrectOwner","inputs":[{"name":"sender","type":"address","internalType":"address"},{"name":"tokenId","type":"uint256","internalType":"uint256"},{"name":"owner","type":"address","internalType":"address"}]},{"type":"error","name":"ERC721InsufficientApproval","inputs":[{"name":"operator","type":"address","internalType":"address"},{"name":"tokenId","type":"uint256","internalType":"uint256"}]},{"type":"error","name":"ERC721InvalidApprover","inputs":[{"name":"approver","type":"address","internalType":"address"}]},{"type":"error","name":"ERC721InvalidOperator","inputs":[{"name":"operator","type":"address","internalType":"address"}]},{"type":"error","name":"ERC721InvalidOwner","inputs":[{"name":"owner","type":"address","internalType":"address"}]},{"type":"error","name":"ERC721InvalidReceiver","inputs":[{"name":"receiver","type":"address","internalType":"address"}]},{"type":"error","name":"ERC721InvalidSender","inputs":[{"name":"sender","type":"address","internalType":"address"}]},{"type":"error","name":"ERC721NonexistentToken","inputs":[{"name":"tokenId","type":"uint256","internalType":"uint256"}]},{"type":"error","name":"OwnableInvalidOwner","inputs":[{"name":"owner","type":"address","internalType":"address"}]},{"type":"error","name":"OwnableUnauthorizedAccount","inputs":[{"name":"account","type":"address","internalType":"address"}]}],"bytecode":{"object":"0x60806040523461038c576118b76020813803918261001c81610390565b93849283398101031261038c57516001600160a01b0381169081900361038c576100466040610390565b9060118252704d4544512051756573742042616467657360781b602083015261006f6040610390565b600381526226a8a160e91b602082015282519091906001600160401b0381116102a0575f54600181811c91168015610382575b602082101461028257601f8111610320575b506020601f82116001146102bf57819293945f926102b4575b50508160011b915f199060031b1c1916175f555b81516001600160401b0381116102a057600154600181811c91168015610296575b602082101461028257601f811161021f575b50602092601f82116001146101be57928192935f926101b3575b50508160011b915f199060031b1c1916176001555b80156101a057600780546001600160a01b03198116831790915560405191906001600160a01b03167f8be0079c531659141344cd1fd0a4f28419497f9722a3daafe3b4186f6b6457e05f80a3600160095561150190816103b68239f35b631e4fbdf760e01b5f525f60045260245ffd5b015190505f8061012e565b601f1982169360015f52805f20915f5b86811061020757508360019596106101ef575b505050811b01600155610143565b01515f1960f88460031b161c191690555f80806101e1565b919260206001819286850151815501940192016101ce565b60015f527fb10e2d527612073b26eecdfd717e6a320cf44b4afac2b0732d9fcbe2b7fa0cf6601f830160051c81019160208410610278575b601f0160051c01905b81811061026d5750610114565b5f8155600101610260565b9091508190610257565b634e487b7160e01b5f52602260045260245ffd5b90607f1690610102565b634e487b7160e01b5f52604160045260245ffd5b015190505f806100cd565b601f198216905f8052805f20915f5b818110610308575095836001959697106102f0575b505050811b015f556100e1565b01515f1960f88460031b161c191690555f80806102e3565b9192602060018192868b0151815501940192016102ce565b5f80527f290decd9548b62a8d60345a988386fc84ba6bc95484008f6362f93160ef3e563601f830160051c81019160208410610378575b601f0160051c01905b81811061036d57506100b4565b5f8155600101610360565b9091508190610357565b90607f16906100a2565b5f80fd5b6040519190601f01601f191682016001600160401b038111838210176102a05760405256fe6080806040526004361015610012575f80fd5b5f3560e01c90816301ffc9a714610f145750806306fdde0314610e7257806307a43090146109ae578063081812fc14610972578063095ea7b31461088857806323b872dd1461087157806331921d871461084757806342842e0e14610818578063625cdead146107a15780636352211e1461077157806365fb1ee21461061257806370a08231146105c1578063715018a6146105665780638da5cb5b1461053e57806395d89b41146104745780639a3c63c01461044a578063a22cb465146103af578063b5588c6e146102ef578063b88d4fde14610259578063c87b56dd14610222578063dc1627eb146101fa578063e985e9c5146101a35763f2fde38b14610119575f80fd5b3461019f57602036600319011261019f57610132610fbd565b61013a6112a9565b6001600160a01b0316801561018c57600780546001600160a01b0319811683179091556001600160a01b03167f8be0079c531659141344cd1fd0a4f28419497f9722a3daafe3b4186f6b6457e05f80a3005b631e4fbdf760e01b5f525f60045260245ffd5b5f80fd5b3461019f57604036600319011261019f576101bc610fbd565b6101c4610fd3565b9060018060a01b03165f52600560205260405f209060018060a01b03165f52602052602060ff60405f2054166040519015158152f35b3461019f575f36600319011261019f576008546040516001600160a01b039091168152602090f35b3461019f57602036600319011261019f57610255610241600435611406565b604051918291602083526020830190610f99565b0390f35b3461019f57608036600319011261019f57610272610fbd565b61027a610fd3565b906044356064359267ffffffffffffffff841161019f573660238501121561019f578360040135926102ab84611045565b936102b96040519586611023565b808552366024828801011161019f576020815f9260246102ed990183890137860101526102e7838383611099565b336112d0565b005b3461019f57602036600319011261019f576004355f52600a60205260405f20604051905f9080549061032082611061565b80855291600181169081156103885750600114610348575b6102558461024181860382611023565b5f90815260208120939250905b80821061036e5750909150810160200161024182610338565b919260018160209254838588010152019101909291610355565b60ff191660208087019190915292151560051b850190920192506102419150839050610338565b3461019f57604036600319011261019f576103c8610fbd565b6024359081151580920361019f576001600160a01b031690811561043757335f52600560205260405f20825f5260205260405f2060ff1981541660ff83161790556040519081527f17307eab39ab6107e8899845ad3d59bd9653f200f220920489ca2b5937696c3160203392a3005b50630b61174360e31b5f5260045260245ffd5b3461019f57602036600319011261019f576004355f52600c602052602060405f2054604051908152f35b3461019f575f36600319011261019f576040515f60015461049481611061565b808452906001811690811561051a57506001146104bc575b6102558361024181850382611023565b91905060015f527fb10e2d527612073b26eecdfd717e6a320cf44b4afac2b0732d9fcbe2b7fa0cf6915f905b808210610500575090915081016020016102416104ac565b9192600181602092548385880101520191019092916104e8565b60ff191660208086019190915291151560051b8401909101915061024190506104ac565b3461019f575f36600319011261019f576007546040516001600160a01b039091168152602090f35b3461019f575f36600319011261019f5761057e6112a9565b600780546001600160a01b031981169091555f906001600160a01b03167f8be0079c531659141344cd1fd0a4f28419497f9722a3daafe3b4186f6b6457e08280a3005b3461019f57602036600319011261019f576001600160a01b036105e2610fbd565b1680156105ff575f526003602052602060405f2054604051908152f35b6322718ad960e21b5f525f60045260245ffd5b3461019f57604036600319011261019f5760243560043567ffffffffffffffff821161019f573660238301121561019f5781600401359067ffffffffffffffff821161019f57366024838501011161019f5761066c6112a9565b80156107625781156107535760c88211610744575f52600a60205260405f20906106a08161069a8454611061565b84611226565b5f601f82116001146106e05781906106ce93945f926106d2575b50508160011b915f199060031b1c19161790565b9055005b6024925001013584806106ba565b601f19821693835f5260205f20915f5b868110610729575083600195961061070d575b505050811b019055005b01602401355f19600384901b60f8161c19169055838080610703565b909260206001819260248787010135815501940191016106f0565b63b18bede760e01b5f5260045ffd5b6377f3541560e01b5f5260045ffd5b6337ff7d0f60e11b5f5260045ffd5b3461019f57602036600319011261019f57602061078f600435611275565b6040516001600160a01b039091168152f35b3461019f57602036600319011261019f576107ba610fbd565b6107c26112a9565b6001600160a01b0316801561080957600880546001600160a01b031916821790557f23d064e8743c7b6ccc2901ff570767b1a6aa908e7c01ef4af625ea7ecae965ba5f80a2005b630f217a9160e31b5f5260045ffd5b3461019f576102ed61082936610fe9565b9060405192610839602085611023565b5f84526102e7838383611099565b3461019f57602036600319011261019f576004355f52600b602052602060405f2054604051908152f35b3461019f576102ed61088236610fe9565b91611099565b3461019f57604036600319011261019f576108a1610fbd565b6024356108ad81611275565b3315158061095f575b80610932575b61091f5781906001600160a01b0384811691167f8c5be1e5ebec7d5bd14f71427d1e84f3dd0314c0f7b2291e5b200ac8c7c3b9255f80a45f90815260046020526040902080546001600160a01b0319166001600160a01b03909216919091179055005b63a9fbf51f60e01b5f523360045260245ffd5b506001600160a01b0381165f90815260056020908152604080832033845290915290205460ff16156108bc565b506001600160a01b0381163314156108b6565b3461019f57602036600319011261019f5760043561098f81611275565b505f526004602052602060018060a01b0360405f205416604051908152f35b3461019f57606036600319011261019f576109c7610fbd565b60085460443590602435906001600160a01b03163303610e6357811561076257815f52600a60205260405f209260405193845f825492610a0684611061565b8084529360018116908115610e415750600114610dfd575b50610a2b92500385611023565b8351156107535760c8845111610744576009549260018401808511610de957600955602094604051610a5d8782611023565b5f81526001600160a01b038416938415610dd6575f8781526002895260409020546001600160a01b03168015159081610da5575b865f5260038a5260405f2060018154019055885f5260028a5260405f20876bffffffffffffffffffffffff60a01b8254161790558887827fddf252ad1be2c89b69c2b068fc378daa952ba7f163c4a11628f55a4df523b3ef5f80a450610d92573b610c7a575b50845f526006865260405f209080519067ffffffffffffffff8211610c6657610b2a82610b248554611061565b85611226565b8790601f8311600114610bde57827f387bb3eb7501c3ed1b38da9521bab0a6604a0ec69bf681eab8c74ba6d3eea15a959360409593610b7d935f92610bd35750508160011b915f199060031b1c19161790565b90555b7ff8e1a15aba9398e019f0b49df1a4fde98ee17ae345cb5f6b5e2c27f5033e8ce7878351888152a1855f52600b875280825f2055855f52600c875284825f205581519081528587820152a3604051908152f35b015190508b806106ba565b90601f19831691845f52895f20925f5b8b828210610c505750509260019285927f387bb3eb7501c3ed1b38da9521bab0a6604a0ec69bf681eab8c74ba6d3eea15a98966040989610610c38575b505050811b019055610b80565b01515f1960f88460031b161c191690558a8080610c2b565b6001859682939686015181550195019301610bee565b634e487b7160e01b5f52604160045260245ffd5b86610cb891604098979695985180938192630a85bd0160e11b83523360048401525f6024840152896044840152608060648401526084830190610f99565b03815f8b5af15f9181610d52575b50610d1b5786863d15610d13573d90610cde82611045565b91610cec6040519384611023565b82523d5f8284013e5b81519182610d105783633250574960e11b5f5260045260245ffd5b01fd5b606090610cf5565b949593949293926001600160e01b03191663757a42ff60e11b01610d3f5786610af7565b82633250574960e11b5f5260045260245ffd5b9091508681813d8311610d8b575b610d6a8183611023565b8101031261019f57516001600160e01b03198116810361019f579088610cc6565b503d610d60565b6339e3563760e11b5f525f60045260245ffd5b5f8981526004602052604080822080546001600160a01b031916905582825260038c52902080545f19019055610a91565b633250574960e11b5f525f60045260245ffd5b634e487b7160e01b5f52601160045260245ffd5b90505f9291925260205f20905f915b818310610e25575050906020610a2b9282010187610a1e565b6020919350806001915483858b01015201910190918692610e0c565b905060209250610a2b94915060ff191682840152151560051b82010187610a1e565b6321d34ae360e01b5f5260045ffd5b3461019f575f36600319011261019f576040515f5f54610e9181611061565b808452906001811690811561051a5750600114610eb8576102558361024181850382611023565b5f8080527f290decd9548b62a8d60345a988386fc84ba6bc95484008f6362f93160ef3e563939250905b808210610efa575090915081016020016102416104ac565b919260018160209254838588010152019101909291610ee2565b3461019f57602036600319011261019f576004359063ffffffff60e01b821680920361019f57602091632483248360e11b8114908115610f56575b5015158152f35b6380ac58cd60e01b811491508115610f88575b8115610f77575b5083610f4f565b6301ffc9a760e01b14905083610f70565b635b5e139f60e01b81149150610f69565b805180835260209291819084018484015e5f828201840152601f01601f1916010190565b600435906001600160a01b038216820361019f57565b602435906001600160a01b038216820361019f57565b606090600319011261019f576004356001600160a01b038116810361019f57906024356001600160a01b038116810361019f579060443590565b90601f8019910116810190811067ffffffffffffffff821117610c6657604052565b67ffffffffffffffff8111610c6657601f01601f191660200190565b90600182811c9216801561108f575b602083101461107b57565b634e487b7160e01b5f52602260045260245ffd5b91607f1691611070565b6001600160a01b0390911691908215610dd6575f828152600260205260409020546001600160a01b031692829033151580611191575b508461115e575b805f52600360205260405f2060018154019055815f52600260205260405f20816bffffffffffffffffffffffff60a01b825416179055847fddf252ad1be2c89b69c2b068fc378daa952ba7f163c4a11628f55a4df523b3ef5f80a46001600160a01b031680830361114657505050565b6364283d7b60e01b5f5260045260245260445260645ffd5b5f82815260046020526040902080546001600160a01b0319169055845f52600360205260405f205f1981540190556110d6565b909150806111d5575b156111a75782905f6110cf565b82846111bf57637e27328960e01b5f5260045260245ffd5b63177e802f60e01b5f523360045260245260445ffd5b503384148015611204575b8061119a57505f838152600460205260409020546001600160a01b0316331461119a565b505f84815260056020908152604080832033845290915290205460ff166111e0565b601f821161123357505050565b5f5260205f20906020601f840160051c8301931061126b575b601f0160051c01905b818110611260575050565b5f8155600101611255565b909150819061124c565b5f818152600260205260409020546001600160a01b0316908115611297575090565b637e27328960e01b5f5260045260245ffd5b6007546001600160a01b031633036112bd57565b63118cdaa760e01b5f523360045260245ffd5b823b6112de575b5050505050565b604051630a85bd0160e11b81526001600160a01b03918216600482015291811660248301526044820193909352608060648201529116916020908290819061132a906084830190610f99565b03815f865af15f91816113c1575b5061138d57503d15611386573d61134e81611045565b9061135c6040519283611023565b81523d5f602083013e5b805190816113815782633250574960e11b5f5260045260245ffd5b602001fd5b6060611366565b6001600160e01b03191663757a42ff60e11b016113af57505f808080806112d7565b633250574960e11b5f5260045260245ffd5b9091506020813d6020116113fe575b816113dd60209383611023565b8101031261019f57516001600160e01b03198116810361019f57905f611338565b3d91506113d0565b61140f81611275565b505f52600660205260405f2060405190815f82549261142d84611061565b80845293600181169081156114a95750600114611465575b5061145292500382611023565b5f604051611461602082611023565b5290565b90505f9291925260205f20905f915b81831061148d575050906020611452928201015f611445565b6020919350806001915483858801015201910190918392611474565b90506020925061145294915060ff191682840152151560051b8201015f61144556fea2646970667358221220b4159a2780c8a0ded9cd9d46205d416f3aa565d6d92b731886ce175adc89246864736f6c634300081e0033","linkReferences":{}},"methodIdentifiers":{"approve(address,uint256)":"095ea7b3","badgeLevelByTokenId(uint256)":"31921d87","badgeURI(uint256)":"b5588c6e","balanceOf(address)":"70a08231","getApproved(uint256)":"081812fc","isApprovedForAll(address,address)":"e985e9c5","mintBadge(address,uint256,uint256)":"07a43090","name()":"06fdde03","owner()":"8da5cb5b","ownerOf(uint256)":"6352211e","questIdByTokenId(uint256)":"9a3c63c0","questManager()":"dc1627eb","renounceOwnership()":"715018a6","safeTransferFrom(address,address,uint256)":"42842e0e","safeTransferFrom(address,address,uint256,bytes)":"b88d4fde","setApprovalForAll(address,bool)":"a22cb465","setBadgeURI(uint256,string)":"65fb1ee2","setQuestManager(address)":"625cdead","supportsInterface(bytes4)":"01ffc9a7","symbol()":"95d89b41","tokenURI(uint256)":"c87b56dd","transferFrom(address,address,uint256)":"23b872dd","transferOwnership(address)":"f2fde38b"},"id":52}