{"abi":[{"type":"constructor","inputs":[{"name":"identityRegistry_","type":"address","internalType":"contract IIdentityRegistryReader"}],"stateMutability":"nonpayable"},{"type":"function","name":"IDENTITY_REGISTRY","inputs":[],"outputs":[{"name":"","type":"address","internalType":"contract IIdentityRegistryReader"}],"stateMutability":"view"},{"type":"function","name":"requireValidAgent","inputs":[{"name":"controller","type":"address","internalType":"address"}],"outputs":[{"name":"agentId","type":"uint256","internalType":"uint256"}],"stateMutability":"view"},{"type":"error","name":"AgentRegistryAdapter__Inactive","inputs":[{"name":"agentId","type":"uint256","internalType":"uint256"}]},{"type":"error","name":"AgentRegistryAdapter__Unregistered","inputs":[{"name":"controller","type":"address","internalType":"address"}]}],"bytecode":{"object":"0x60a034606c57601f6102c838819003918201601f19168301916001600160401b03831184841017607057808492602094604052833981010312606c57516001600160a01b0381168103606c5760805260405161024390816100858239608051818181606f01526101a80152f35b5f80fd5b634e487b7160e01b5f52604160045260245ffdfe6080806040526004361015610012575f80fd5b5f3560e01c90816365fad02714610196575063baa04c7514610032575f80fd5b34610139576020366003190112610139576004356001600160a01b0381169081900361013957604051639c996edb60e01b815260048101829052907f00000000000000000000000000000000000000000000000000000000000000006001600160a01b031690602083602481855afa928315610145575f93610162575b50821561015057506020602491604051928380926382afd23b60e01b82528660048301525afa908115610145575f91610106575b50156100f457602090604051908152f35b635ba6860560e11b5f5260045260245ffd5b90506020813d60201161013d575b81610121602093836101d7565b8101031261013957518015158103610139575f6100e3565b5f80fd5b3d9150610114565b6040513d5f823e3d90fd5b6358f2f4e760e11b5f5260045260245ffd5b9092506020813d60201161018e575b8161017e602093836101d7565b810103126101395751915f6100af565b3d9150610171565b34610139575f366003190112610139577f00000000000000000000000000000000000000000000000000000000000000006001600160a01b03168152602090f35b90601f8019910116810190811067ffffffffffffffff8211176101f957604052565b634e487b7160e01b5f52604160045260245ffdfea26469706673582212209696a58be9595baa44ad0b9cf720376ab43a596e595917a9e47aaec72c52258864736f6c634300081e0033","linkReferences":{}},"methodIdentifiers":{"IDENTITY_REGISTRY()":"65fad027","requireValidAgent(address)":"baa04c75"},"id":55}