{"abi":[{"type":"constructor","inputs":[{"name":"owner_","type":"address","internalType":"address"}],"stateMutability":"nonpayable"},{"type":"function","name":"fundQuest","inputs":[{"name":"questId","type":"uint256","internalType":"uint256"},{"name":"amount","type":"uint256","internalType":"uint256"}],"outputs":[],"stateMutability":"nonpayable"},{"type":"function","name":"medqToken","inputs":[],"outputs":[{"name":"","type":"address","internalType":"contract MedqToken"}],"stateMutability":"view"},{"type":"function","name":"owner","inputs":[],"outputs":[{"name":"","type":"address","internalType":"address"}],"stateMutability":"view"},{"type":"function","name":"questManager","inputs":[],"outputs":[{"name":"","type":"address","internalType":"address"}],"stateMutability":"view"},{"type":"function","name":"releaseReward","inputs":[{"name":"questId","type":"uint256","internalType":"uint256"},{"name":"recipient","type":"address","internalType":"address"},{"name":"amount","type":"uint256","internalType":"uint256"}],"outputs":[],"stateMutability":"nonpayable"},{"type":"function","name":"renounceOwnership","inputs":[],"outputs":[],"stateMutability":"nonpayable"},{"type":"function","name":"rewardInfo","inputs":[{"name":"questId","type":"uint256","internalType":"uint256"}],"outputs":[{"name":"","type":"tuple","internalType":"struct RewardVault.QuestReward","components":[{"name":"totalAmount","type":"uint256","internalType":"uint256"},{"name":"claimedAmount","type":"uint256","internalType":"uint256"}]}],"stateMutability":"view"},{"type":"function","name":"setMedqToken","inputs":[{"name":"tokenAddress","type":"address","internalType":"address"}],"outputs":[],"stateMutability":"nonpayable"},{"type":"function","name":"setQuestManager","inputs":[{"name":"questManager_","type":"address","internalType":"address"}],"outputs":[],"stateMutability":"nonpayable"},{"type":"function","name":"transferOwnership","inputs":[{"name":"newOwner","type":"address","internalType":"address"}],"outputs":[],"stateMutability":"nonpayable"},{"type":"event","name":"MedqTokenUpdated","inputs":[{"name":"tokenAddress","type":"address","indexed":true,"internalType":"address"}],"anonymous":false},{"type":"event","name":"OwnershipTransferred","inputs":[{"name":"previousOwner","type":"address","indexed":true,"internalType":"address"},{"name":"newOwner","type":"address","indexed":true,"internalType":"address"}],"anonymous":false},{"type":"event","name":"QuestManagerUpdated","inputs":[{"name":"newQuestManager","type":"address","indexed":true,"internalType":"address"}],"anonymous":false},{"type":"event","name":"RewardFunded","inputs":[{"name":"questId","type":"uint256","indexed":true,"internalType":"uint256"},{"name":"amount","type":"uint256","indexed":false,"internalType":"uint256"}],"anonymous":false},{"type":"event","name":"RewardReleased","inputs":[{"name":"questId","type":"uint256","indexed":true,"internalType":"uint256"},{"name":"recipient","type":"address","indexed":true,"internalType":"address"},{"name":"amount","type":"uint256","indexed":false,"internalType":"uint256"}],"anonymous":false},{"type":"error","name":"OwnableInvalidOwner","inputs":[{"name":"owner","type":"address","internalType":"address"}]},{"type":"error","name":"OwnableUnauthorizedAccount","inputs":[{"name":"account","type":"address","internalType":"address"}]},{"type":"error","name":"RewardVault__InsufficientBalance","inputs":[{"name":"questId","type":"uint256","internalType":"uint256"},{"name":"requested","type":"uint256","internalType":"uint256"},{"name":"available","type":"uint256","internalType":"uint256"}]},{"type":"error","name":"RewardVault__InvalidQuestManager","inputs":[]},{"type":"error","name":"RewardVault__MedqTokenNotConfigured","inputs":[]},{"type":"error","name":"RewardVault__OnlyQuestManager","inputs":[]},{"type":"error","name":"RewardVault__QuestAlreadyFunded","inputs":[{"name":"questId","type":"uint256","internalType":"uint256"}]},{"type":"error","name":"RewardVault__QuestNotFunded","inputs":[{"name":"questId","type":"uint256","internalType":"uint256"}]},{"type":"error","name":"SafeERC20FailedOperation","inputs":[{"name":"token","type":"address","internalType":"address"}]}],"bytecode":{"object":"0x60803460b857601f61077a38819003918201601f19168301916001600160401b0383118484101760bc5780849260209460405283398101031260b857516001600160a01b0381169081900360b857801560a5575f80546001600160a01b031981168317825560405192916001600160a01b03909116907f8be0079c531659141344cd1fd0a4f28419497f9722a3daafe3b4186f6b6457e09080a36106a990816100d18239f35b631e4fbdf760e01b5f525f60045260245ffd5b5f80fd5b634e487b7160e01b5f52604160045260245ffdfe60806040526004361015610011575f80fd5b5f5f3560e01c80630632eeeb146104a6578063310e84241461043e578063625cdead146103c7578063709a795b1461039f578063715018a61461034857806381a00f83146102eb5780638da5cb5b146102c4578063c419403114610139578063dc1627eb146101105763f2fde38b14610088575f80fd5b3461010d57602036600319011261010d576100a16105f8565b6100a961064d565b6001600160a01b031680156100f95781546001600160a01b03198116821783556001600160a01b03167f8be0079c531659141344cd1fd0a4f28419497f9722a3daafe3b4186f6b6457e08380a380f35b631e4fbdf760e01b82526004829052602482fd5b80fd5b503461010d578060031936011261010d576002546040516001600160a01b039091168152602090f35b50346102595760403660031901126102595760043560243561015961062a565b6003546001600160a01b0316156102b557815f52600160205260405f20546102a257801561025d5760405161018d8161060e565b8181526001602082015f8152845f528160205260405f20925183555191015560018060a01b0360035416803b15610259575f80916044604051809481936340c10f1960e01b83523060048401528760248401525af1801561024e5761021c575b5060207f4f0775335d78e0bfaf0bd965fe6088dbd28697f9c0590c66383d5314bea5c9e591604051908152a280f35b90925067ffffffffffffffff811161023a576040525f9160206101ed565b634e487b7160e01b5f52604160045260245ffd5b6040513d5f823e3d90fd5b5f80fd5b60405162461bcd60e51b815260206004820152601860248201527f5265776172645661756c743a207a65726f20616d6f756e7400000000000000006044820152606490fd5b506307a8a9a960e41b5f5260045260245ffd5b634ca1ad5760e01b5f5260045ffd5b34610259575f366003190112610259575f546040516001600160a01b039091168152602090f35b34610259576020366003190112610259575f602060405161030b8161060e565b82815201526004355f5260016020526040805f20815161032a8161060e565b60206001835493848452015491019081528251918252516020820152f35b34610259575f3660031901126102595761036061064d565b5f80546001600160a01b0319811682556001600160a01b03167f8be0079c531659141344cd1fd0a4f28419497f9722a3daafe3b4186f6b6457e08280a3005b34610259575f366003190112610259576003546040516001600160a01b039091168152602090f35b34610259576020366003190112610259576103e06105f8565b6103e861064d565b6001600160a01b0316801561042f57600280546001600160a01b031916821790557f23d064e8743c7b6ccc2901ff570767b1a6aa908e7c01ef4af625ea7ecae965ba5f80a2005b6326f755d960e11b5f5260045ffd5b34610259576020366003190112610259576104576105f8565b61045f61064d565b6001600160a01b031680156102b557600380546001600160a01b031916821790557f19e2f74cac9e292362fe780f5b9aff112e676077da6c8117f059ec27fdf45d345f80a2005b34610259576060366003190112610259576024356001600160a01b0381169060043590829003610259576044356104db61062a565b815f52600160205260405f2080549081156105e557821561025d576001018054918281039081116105b7578084116105cb57508282018092116105b7575560018060a01b0360035416906040519163a9059cbb60e01b5f52846004528160245260205f60448180855af160015f5114811615610598575b83604052156105865750816020917f3c4d26369af83ecee8c33f84de0921b8c4a1e7b1949b1e2112fdf72e1a4508e29352a3005b635274afe760e01b5f5260045260245ffd5b60018115166105ae57813b15153d151616610552565b833d5f823e3d90fd5b634e487b7160e01b5f52601160045260245ffd5b8385636a7a4e4760e11b5f5260045260245260445260645ffd5b8363103f79d760e21b5f5260045260245ffd5b600435906001600160a01b038216820361025957565b6040810190811067ffffffffffffffff82111761023a57604052565b6002546001600160a01b0316330361063e57565b630268f9d560e11b5f5260045ffd5b5f546001600160a01b0316330361066057565b63118cdaa760e01b5f523360045260245ffdfea2646970667358221220eeed33f2e3066efc7a54a2858a09d330506c881009b38b3b5a770804f63a228864736f6c634300081e0033","linkReferences":{}},"methodIdentifiers":{"fundQuest(uint256,uint256)":"c4194031","medqToken()":"709a795b","owner()":"8da5cb5b","questManager()":"dc1627eb","releaseReward(uint256,address,uint256)":"0632eeeb","renounceOwnership()":"715018a6","rewardInfo(uint256)":"81a00f83","setMedqToken(address)":"310e8424","setQuestManager(address)":"625cdead","transferOwnership(address)":"f2fde38b"},"id":54}